:020000041A00E0
:1000000000800010B504001A7901001A7B01001A63
:100010007D01001A7F01001A8101001ADA73FF5373
:100020000000000000000000000000008301001A32
:100030008501001A000000008701001A3515001A1A
:10004000BB01001ABB01001ABB01001A000000002E
:10005000BB01001ABB01001ABB01001ABB01001A48
:100060004119001ABB01001ABB01001ABB01001A9A
:10007000BB01001ABB01001ABB01001ABB01001A28
:10008000BB01001ABB01001ABB01001ABB01001A18
:10009000BB01001ABB01001ABB01001ABB01001A08
:1000A000BB01001ABB01001ABB01001ABB01001AF8
:1000B000BB01001ABB01001ABB01001ABB01001AE8
:1000C000BB01001ABB01001ABB01001ABB01001AD8
:1000D000BB01001ABB01001ABB01001ABB01001AC8
:1000E000BB01001ABB01001ABB01001ABB01001AB8
:1000F00000000000BB01001ABB01001ABB01001A7E
:1001000000000000BB01001ABB01001ABB01001A6D
:10011000BB01001AF44F011A000000104012000049
:10012000F44F011A0000081000000000F44F011AFB
:100130000000002000000000F44F011A00800020A1
:1001400000000000F44F011A00C000200000000071
:10015000401200104C480000000008100000000091
:1001600000000020000000000080002000000000CF
:1001700000C0002000000000FEE7FEE7FEE7FEE70B
:10018000FEE7FEE7FEE7FEE7FEE7002393420AD222
:1001900010B404680C600433043004319342F8D383
:1001A0005DF8044B70477047002303E000220260B3
:1001B000043304308B42F9D37047FEE7FFFFFFFFA3
:1001C000FFFFFFFFFFFFFFFFFFFFFFFFFFFFFFFF3F
:1001D000FFFFFFFFFFFFFFFFFFFFFFFFFFFFFFFF2F
:1001E000FFFFFFFFFFFFFFFFFFFFFFFFFFFFFFFF1F
:1001F000FFFFFFFFFFFFFFFFFFFFFFFFFFFFFFFF0F
:10020000FFFFFFFFFFFFFFFFFFFFFFFFFFFFFFFFFE
:10021000FFFFFFFFFFFFFFFFFFFFFFFFFFFFFFFFEE
:10022000FFFFFFFFFFFFFFFFFFFFFFFFFFFFFFFFDE
:10023000FFFFFFFFFFFFFFFFFFFFFFFFFFFFFFFFCE
:10024000FFFFFFFFFFFFFFFFFFFFFFFFFFFFFFFFBE
:10025000FFFFFFFFFFFFFFFFFFFFFFFFFFFFFFFFAE
:10026000FFFFFFFFFFFFFFFFFFFFFFFFFFFFFFFF9E
:10027000FFFFFFFFFFFFFFFFFFFFFFFFFFFFFFFF8E
:10028000FFFFFFFFFFFFFFFFFFFFFFFFFFFFFFFF7E
:10029000FFFFFFFFFFFFFFFFFFFFFFFFFFFFFFFF6E
:1002A000FFFFFFFFFFFFFFFFFFFFFFFFFFFFFFFF5E
:1002B000FFFFFFFFFFFFFFFFFFFFFFFFFFFFFFFF4E
:1002C000FFFFFFFFFFFFFFFFFFFFFFFFFFFFFFFF3E
:1002D000FFFFFFFFFFFFFFFFFFFFFFFFFFFFFFFF2E
:1002E000FFFFFFFFFFFFFFFFFFFFFFFFFFFFFFFF1E
:1002F000FFFFFFFFFFFFFFFFFFFFFFFFFFFFFFFF0E
:10030000014401394FF4006000E040108842FCDAFB
:100310004000704708B50A460146032001F0B1F8D5
:1003200008BD08B54A000146032001F0AAF808BD3F
:1003300080B582B001F012FB4FF4E121032001F0FF
:1003400055F8002001F010F94A4801F02BF883E03D
:100350000020494B186001F063F900B2A0F500706D
:100360008001464B1A88464B23F812002A2001F0E0
:10037000DCFA414B1A6844F6AF739A42F9D93F4A06
:100380001388013313803D4B1A883E4BB3F900307C
:100390009A42DDDB394A138006E0394A002122F80F
:1003A00013100133354A1380344B1B88364A1288A8
:1003B0009342F2D306213548FFF7ACFF314F0121BC
:1003C0003846FFF7AEFF304C01212046FFF7A9FF6A
:1003D0002B4D21882846FFF7A4FF2D4E218830465B
:1003E000FFF79FFFB7F9001023885B1A294F00978A
:1003F00001333246284601F079FC274E01230022C2
:100400002188304601F0F4FB244D2A463946304617
:1004100001F092FB22885208DFF8908001324146B9
:10042000284601F049FF218849081D4E1D4F3346DB
:100430003A460131404601F0CBFA21882846FFF7C1
:1004400070FF01213846FFF76CFF01213046FFF7AE
:1004500068FF282001F069FA134BB3F90010094B2B
:10046000B3F90000FFF74CFF074B1880034B002245
:100470001A8088E700CB280C041000E04A12001014
:10048000802200100000001040120010D82E001A28
:100490000400001068120010682200108032001062
:1004A0004412001048120010F81100108052001081
:1004B0007047FFFF10B572B6194B1A4A1A60043321
:1004C000194A1A60002305E0184A4FF0FF3142F83C
:1004D00023100133072BF7D962B6154B07E003F160
:1004E0000C049A6859681868FFF74FFE2346114AB2
:1004F0009342F4D306E01C46596854F8080BFFF702
:1005000053FE23460C4A9342F5D300F02FFF02F02E
:1005100075FCFFF7CDFFFFF70BFF30BFFDE700BF16
:10052000003105400010DF10FFF7DF0180E200E03E
:100530001401001A5001001A7801001A7047704720
:100540000022052A19D870B40C4911F8125001EB99
:1005500042014C780A4B05F5006653F8261001203D
:10056000A040014343F8261003EB45130021195521
:100570000132052AE8D970BC70477047EC2E001A8A
:1005800000400F400023032B16D830B40B4911F85C
:10059000132001EB43014D78094C02F5006254F839
:1005A00022100120A84021EA000144F82210013362
:1005B000032BEBD930BC7047704700BFE42E001A04
:1005C00000400F400023082B16D830B40B4911F817
:1005D000132001EB43014D78094C02F5006254F8F9
:1005E00022100120A84021EA000144F82210013322
:1005F000082BEBD930BC7047704700BFF82E001AAB
:1006000000400F4010B582B0084C6946204600F00B
:10061000CFF9074A6946204600F034FA00226946BD
:10062000204600F048FA02B010BD00BF00300E4076
:10063000801A060010B50B4C204600F07BFE636864
:1006400023F004036360236823F0FF0343F00703F0
:1006500023600549204600F04EFE636843F0020324
:10066000636010BD00500C40A086010008B500205A
:1006700000F0F4FD044B40F60802C3F8842C034953
:10068000002000F0FDFD08BD0060084040420F0062
:1006900010B5074C204600F097F84FF4E1312046A2
:1006A00000F0DCF80323E3600123E36510BD00BF25
:1006B00000100C4008B5FFF7EBFF094800F0BCFD47
:1006C000FFF780FFFFF79EFFFFF7B4FFFFF7CEFFB6
:1006D000FFF736FFFFF756FF00F0FAFC08BD00BF3A
:1006E00000400F4008B5FFF7D3FF08BD00231C2BC7
:1006F00012D810B4094A02EB830112F823404A7859
:10070000488802EB4412064941F8220001331C2BB1
:10071000F0D95DF8044B7047704700BF142F001AE2
:100720000060084010B5174AD2F8203123F4704316
:1007300043F41043C2F82031D2F8243123F470433B
:1007400043F41043C2F8243101220F49062000F07F
:10075000C9FC00244CB10B4B5A6822F00C025A60C1
:100760005A6842F003025A6010BD084800EB840149
:1007700001238A78497810F8240000F0EBFB01345B
:10078000E8E700BF0030044000CB280C102F001A0F
:1007900008B5FFF7ABFFFFF7C5FF08BD094B98424F
:1007A00009D003F58053984207D0A3F580239842DF
:1007B00005D00020704702207047032070470120B9
:1007C000704700BF00100C4030B583B00446FFF7FF
:1007D000E5FF01231A4619460E4D35F8100000F0CA
:1007E000FFFB0723A3600023E3656360E3602362EC
:1007F000E36463652365084B9C4206D00323E360F2
:100800001023A362019B03B030BD00232361A369C1
:100810000193F3E7902F001A0020084038B50546F1
:100820000C46FFF7BBFF0C4B33F8100000F02AFC1E
:100830002301B0FBF3F3D9B2EA6842F08002EA6028
:100840002960C3F307226A60EA6822F08002EA6046
:10085000B0FBF3F0000938BD882F001A2DE9F04FE6
:1008600083B083468846FFF799FF354B33F8100075
:1008700000F008FC06464FF0FF37012400230193E7
:10088000A24699462AE042424B1C17E00AB317469B
:100890000195A24699460135AC421ED9330930076D
:1008A000A4FB000104FB0311621908FB02F2002300
:1008B00002F024F902460B460028E4DB9742EAD313
:1008C000002BE8D0190CE6D1022BDFD8002DDDD0AB
:1008D000E1E717460195A246994601341FB10F2C56
:1008E00001D80025D8E7B9F1000F24D0DBF80C308F
:1008F00043F08003CBF80C305FFA89F3CBF800307B
:10090000C9F30723CBF80430DBF80C3023F0800365
:10091000CBF80C304FEA0A13DBB2019901F00F0259
:100920001343CBF8283033090AFB03F38A4409FB4D
:100930000AF9B3FBF9F9484603B0BDE8F08F00BFF0
:10094000882F001A034B984201D0032070470420DF
:10095000704700BF00400E4070B50D4614461E465D
:10096000FFF7F0FF00F08EFB65B904EB840304EBA6
:10097000430404EB40006400B0FBF4F0C0B2013863
:10098000C0B270BD04FB06F4F3E7036823F0E06334
:1009900043EA016101607047043150F82130002BB7
:1009A00001DB00207047C3F38913138001207047D7
:1009B00038B505460C46FFF7C5FF01231A46194610
:1009C00000F00EFB0021E960084A2260217161718C
:1009D0000B232846FFF7C0FF000240F400132079E4
:1009E000400400F460201843286038BD801A0600D7
:1009F00008B54FF48072C26000220260FFF7A2FFC8
:100A000000F026FB08BD08B5FFF7C6FF08BD012AA8
:100A10000AD01AB1022A0FD000207047006BC840DC
:100A200000F00100C0B270470831C9B2006BC84085
:100A300000F00100C0B27047036B1B0C14BF012013
:100A400000207047012A07D0C368012202FA01F191
:100A500023EA0101C1607047C36802FA01F119433A
:100A6000C160704708B5012904D932B9036823F081
:100A700000630360FFF789FF08BD036843F000636C
:100A80000360F7E770B505460E46046824F46F244A
:100A900024F470640A600B79C3F10B03DBB249796B
:100AA000FFF75AFF44EA00243079400400F4602044
:100AB0002043286070BD08B50A710A68FFF7E2FF9D
:100AC00008BD012A0BD0036823F0E06303600368CC
:100AD000012202FA01F123EA010101607047036873
:100AE00002FA01F119430160704738B504460D461A
:100AF0000021FFF74AFF25B1236843F480332360C8
:100B000038BD236823F480332360F9E7F0B40B6821
:100B100013F0800F02D023F040030B60074601253D
:100B20003BE04B6903FB02F3B3FBF5F314E01C4617
:100B300020E0CCF1000C20E00132B2F5807F26DC11
:100B40000C6814F0400FECD0731C02FA03FC4B69E4
:100B500003FB0CF3B3FBF5F3DFF84CC06345EBD9B3
:100B6000DFF848C0634512D814F0800FDFD1741C41
:100B700023FA04F4B0EB040CDBD46745DCD98D60B8
:100B8000771CCF600A618C61CB616746D4E7013680
:100B9000032E01DC0122D0E70135042D01DC002603
:100BA000F6E7F0BC704700BFFF5E4C0900D012139F
:100BB000F0B599B005460C465C22002101A802F070
:100BC00041F9802300936369059323798DF80430FC
:100BD00069462846FFF79AFF069BAB4227D0EB1ADF
:100BE0002ED41E46109B23F0400310936369159387
:100BF00023798DF8443010A92846FFF787FF169B0C
:100C0000AB421FD0EB1A25D41F462B4B9D4223D954
:100C10000E9BED1A33D4AE423BDCBE4231DC6D4656
:100C20000FCD0FC495E80F0084E80F0006E06D4675
:100C30000FCD0FC495E80F0084E80F0019B0F0BD88
:100C40005B42CEE710AD0FCD0FC495E80F0084E8EE
:100C50000F00F3E75B42D7E74023089363690D93E6
:100C600008A92846FFF752FF0E9BAB42D0D108AD32
:100C70000FCD0FC495E80F0084E80F00DEE76D424A
:100C8000C9E710AD0FCD0FC495E80F0084E80F0041
:100C9000D4E7AF4207DB08AD0FCD0FC495E80F00D6
:100CA00084E80F00CAE710AD0FCD0FC495E80F0020
:100CB00084E80F00C2E700BF80778E0630B4054697
:100CC00000231C2000E001331C2818D103EB430251
:100CD00051000C4A0A441479844210D003EB4301BA
:100CE0004A0008498A5AAA42EDD803EB4302510050
:100CF000044A0A445288AA42E5D32046E4E730BCBD
:100D0000704700BFA42F001A82B04FF47A7301938A
:100D10000D4A936923F0020192698A4201D00A4A7E
:100D2000916123F00303094A1168094A914201D9EC
:100D300043F00403044A9361019B5A1E0192002B65
:100D4000FAD102B0704700BF000005400C2F001A16
:100D5000FF2C31011230054B53F8200010F0010F29
:100D600002D1C0F3046070471120704700000540B5
:100D700000F11202034B53F82220034B185C00EAE7
:100D800092007047000005409C2F001A08B51028FB
:100D90000AD8DFE800F0420B0D161F092225282B88
:100DA00009092E32363A3E00002038E01E4836E06F
:100DB0001E4BD3F82C3103F00703042B30D1002055
:100DC0002DE01A4BD3F82C3103F00703042B29D064
:100DD000174824E0174B186821E0174B18681EE0ED
:100DE000164B18681BE0154B586818E000F06AF8BD
:100DF00015E0002100F09CF811E0012100F098F8C6
:100E00000DE0022100F094F809E0032100F090F8D1
:100E100005E0042100F08CF801E04FF4004008BD2B
:100E20000348FCE70648FAE7001BB700003004401F
:100E300040787D01E02E001A0C2F001A4C12001091
:100E400080F0FA0238B505460C460879FFF79EFF98
:100E50006061194B2B44194A934221D818B380235F
:100E600023600023A360E360B5FBF0F32361144A21
:100E7000954203D903FB00F0A84207D0214628463B
:100E8000FFF796FEA3688BB1013BA360236983B192
:100E9000E2680AB1013AE260013B2361002038BDFB
:100EA0004FF0FF30FBE74FF0FF30F8E74FF0FF3037
:100EB000F5E74FF0FF30F2E7103A6BFF1005940BA7
:100EC000FF5E4C0930B583B0174D6C6CC4F3036002
:100ED000FFF75CFF154B1B6801932B6C13F0010FA0
:100EE0001FD0C4F30743C4F30132C4F30121C4F398
:100EF0008015013301320DF1080C614411F8041C16
:100F000014F0800F08D13DB94900B3FBF1F3B0FBF9
:100F1000F2F000FB03F005E0B0FBF2F003FB00F0A1
:100F200000E0002003B030BD00000540982F001AFB
:100F300038B50C460846FFF70DFF05462046FFF77B
:100F400017FF04462846FFF721FF0134B0FBF4F0F9
:100F500038BDFFFF30B400F11604A40004F1804452
:100F600004F5A02464681B2813D811291AD00E4D4B
:100F700025400AB145F400650BB145F0010545EA8D
:100F800001651630800000F1804000F5A02045602A
:100F900008E044F001041630800000F1804000F5C4
:100FA000A020446030BC7047FEF7FFE01B280CD83F
:100FB0001630800000F1804000F5A020406810F05D
:100FC000010F04D1C0F30460704711207047112055
:100FD000704708B5FFF7EAFFFFF7D8FE08BDFFFF2F
:100FE00069B901210AB141F00401022B09D0B0F521
:100FF000A17F09D22030074B43F8301070470321FE
:10100000F0E741F02001F2E7A0F59170024B43F8C0
:10101000301070470010054000200540B0F5A17F5A
:1010200008D2094A203052F8303043F0010342F828
:1010300030307047054AA0F5917052F8303043F0D7
:10104000010342F830307047001005400020054091
:10105000B0F5A17F08D2094A203052F8303023F091
:10106000010342F830307047054AA0F5917052F8FC
:10107000303023F0010342F8303070470010054053
:101080000020054010B5B0F5A17F09D3A0F59173FC
:101090000D4A52F8334014F0010F07D1002010BD63
:1010A00000F12003094A52F83340F4E7FFF706FE47
:1010B000FFF78FFF14F0E00F03D10123B0FBF3F033
:1010C000EDE70223FAE700BF0020054000100540CD
:1010D00008B56920FFF7D6FF014B186008BD00BFB7
:1010E000845A001070B58AB005460E4614464CF27C
:1010F00050330993062818D00023012229460420E2
:10110000FFF728FF494A536C43F0010353648DF8FD
:10111000085001A93046FFF795FE454B9E4216D96F
:10112000019B13F0400F03D0FEE7FFF7EDFDE3E76F
:1011300013F0800F05D023F08003019300250126D2
:1011400007E0049B013304930125002601E00025FC
:101150002E469DF80820019B43EA0263059A43EA64
:101160000243039A43EA0233049A43EA022343F414
:1011700000632E4A53642D4B1B6C13F0010FFAD001
:101180000023012209210420FFF7E4FEFEB14CF206
:1011900050330993099B5A1E0992002BFAD1019BE7
:1011A00043F0800301939DF8082043EA0263059A07
:1011B00043EA0243039A43EA0233049A43EA0223CE
:1011C00043F40063194A53646CB3002429E0002DF2
:1011D000FAD04CF250330993099B5A1E0992002B06
:1011E000FAD1049B5A1E04929DF80810019B43EA11
:1011F0000163059943EA0143039943EA013343EA52
:10120000022343F40063094A5364DDE7094800EB15
:101210008401CB788A78497810F82400FFF79AFE89
:101220000134112CF2D90AB070BD00BF0000054096
:1012300080778E061030001A7047FFFF012900D01A
:101240007047C0EBC0008200034B13441A69137D42
:10125000DBB2042BFBD0F3E7FC11001070B50546A0
:10126000064EC400221A930033449888FFF7D6FE36
:10127000641BA300F3586C229A6170BDFC1100102E
:101280002DE9F0410C460B4EC5002B1A4FEA83089E
:1012900006EB08039888FFF7F5FEB0FBF4F056F86C
:1012A000083042081A6156F808301A69801A5861E5
:1012B000BDE8F081FC110010034B984201D083205F
:1012C0007047A520704700BF00500C40044B984267
:1012D00002D040F2022070474FF4F170704700BF17
:1012E00000500C40036823F47F43090289B219437C
:1012F00001600261704770B506460D46FFF7E6FFD4
:10130000FFF7C0FE02224FF0FF33002100E021462C
:10131000AB420BD94C1C02FB04F3B0FBF3F39D4230
:10132000F6D2FF2CF3D902320021F1E73046FFF765
:10133000D9FF70BD10B50446FFF7BEFFFFF76EFE84
:101340002046FFF7C3FFFFF769FE636823F004033D
:101350006360236823F0FF0343F00703236002491F
:101360002046FFF7C8FF10BDA086010008B50B4A54
:101370000B4B9A6003F50C731B6903F47F63202BFE
:1013800004D0FFF705FAFFF795F908BD044AD2F833
:10139000883043F47003C2F88830F2E70000001A86
:1013A00000ED00E0044B1860044A136843F00103A9
:1013B00013600120704700BF34120010001000E0DD
:1013C00000EB40008300034AD358586900F0200026
:1013D000704700BF5830001A00EB40008300024AFB
:1013E000D3581960704700BF5830001A2DE9F843F0
:1013F00080468946194C45002A189300E618E7589C
:101400003846FFF7E1F949463846FFF707FA072360
:10141000BB603B680123FB6530797379B27942F098
:1014200018020F4903EB401341F82320F079337A77
:10143000727A42F0D00203EB401341F82320B8F156
:10144000010F01D0BDE8F883064AD36C43F03003A6
:10145000D3641A22C1F80823F4E700BF5830001AF9
:10146000006008400010084038B504460D4620468C
:10147000FFF7A6FF0028FAD029462046FFF7ACFF69
:1014800038BDF8B507460E461546002404E0315D28
:101490003846FFF7E9FF0134AC42F8D3F8BDFFFF4F
:1014A00018B9044B00221A607047024B07221A60D9
:1014B000704700BF10E000E038B550EA01032AD0C1
:1014C00010F1FF3241F1FF33002B08BF322A27D23F
:1014D000144BC3E90001144B1B68A3FB004503FB3D
:1014E00001554FF47A7200232046294601F006FB8D
:1014F0000138B0F1807F09D20C4B58600C4AE021D2
:1015000082F8231000229A6007221A600120FFF758
:10151000C7FF012038BD0020FFF7C2FF0020F9E718
:101520000020F7E738120010845A001010E000E0A5
:1015300000ED00E02DE900480849D1E9002312F14F
:10154000010B43F1000CC1E900BC054B1B6813B152
:10155000044A10689847BDE8008800BF5812001080
:10156000601200105412001030B583B018B1012879
:101570004AD003B030BD264B6D4693E8030085E8A2
:101580000300244C29462046FFF712FA002120468A
:10159000FFF7ABFA204A29462046FFF773FA0022EC
:1015A00001212046FFF78DFA002201212046FFF796
:1015B00049FA002202212046FFF783FA0022022185
:1015C0002046FFF73FFA002203212046FFF779FA71
:1015D000002203212046FFF735FA0022042120468D
:1015E000FFF76FFA002204212046FFF72BFA0B4A7F
:1015F000D2F8883C43F01003C2F8883C0022052151
:101600002046FFF71FFAB4E70248FFF7F1F9B0E709
:10161000A030001A00300E40400D0300006008406A
:1016200070B582B00130C4B20026ADF80660114D2D
:10163000012221462846FFF744FA32460121284676
:10164000FFF710FA002221460A48FFF7E0F90128C7
:10165000F8D1084D0DF1060221462846FFF7D3F9CF
:10166000002221462846FFF72CFABDF8060002B0FA
:1016700070BD00BF00300E4030B40B4D00EB800059
:101680002C182856087094F90110117094F9022052
:101690001A7094F90320029B1A7094F90420039B9A
:1016A0001A7030BC704700BFA830001A10F1020F4A
:1016B00000F0C780B0F1FF3F00F0C58070B584B086
:1016C0000C4600238DF80F308DF80E308DF80D305C
:1016D0008DF80C308DF80B300DF10B03019303AB3B
:1016E00000930DF10D030DF10E020DF10F01FFF747
:1016F000C3FF052C00F2A980DFE804F0098127452B
:1017000063035348FFF798FD012004B070BD9DF8B6
:101710000F109DF80E309DF80D2042F0D00203EB23
:1017200041134C4941F823209DF80C309DF90B20C2
:10173000012000FA02F1464C03F5006354F823201F
:1017400022EA010244F82320DFE79DF80F109DF8FC
:101750000E309DF80D2042F0C00203EB41133D49CD
:1017600041F823209DF80C309DF90B20012000FA50
:1017700002F1374C03F5006354F8232022EA0102FA
:1017800044F82320C1E79DF80F109DF80E309DF816
:101790000D2042F0D80203EB41132E4941F82320DB
:1017A0009DF80C309DF90B20012000FA02F1284C25
:1017B00003F5006354F8232022EA010244F82320B1
:1017C000A3E79DF80F109DF80E309DF80D2042F014
:1017D000C80203EB41131F4941F823209DF80C3048
:1017E0009DF90B20012000FA02F1194C03F500636A
:1017F00054F8232022EA010244F8232085E79DF8CB
:101800000F109DF80E309DF80D2042F0D00203EB32
:101810004113104941F823209DF80C409DF90B20FD
:10182000012000FA02F10A4B04F5006553F8256027
:10183000314343F82510D2B203EB441300219954ED
:1018400063E7002070470020704700205DE700BF7D
:1018500000400F400060084010F1020F2DD0B0F1A1
:10186000FF3F2CD010B584B00C4600238DF80F300C
:101870008DF80E308DF80D308DF80C308DF80B3062
:101880000DF10B03019303AB00930DF10D030DF16B
:101890000E020DF10F01FFF7EFFE9DF80C309DF8E1
:1018A0000B20211C18BF01215B0103F1402303F52C
:1018B00070239954012004B010BD0020704700200F
:1018C000704710F1020F2CD0B0F1FF3F2BD000B5C4
:1018D00085B000238DF80F308DF80E308DF80D3067
:1018E0008DF80C308DF80B300DF10B03019303AB29
:1018F00000930DF10D030DF10E020DF10F01FFF735
:10190000BBFE9DF90C309DF80B205B0103F14023D9
:1019100003F57023985C003018BF012005B05DF816
:1019200004FB012070470020704710B50446FFF704
:10193000C8FFB0FA80F149092046FFF78DFF10BDBE
:1019400008B5044B1B681B68DB68034A106898479E
:1019500008BD00BF885A00106412001008B5FFF7D8
:10196000B7FB1A4B1868FFF71DFD01200021FFF798
:10197000A3FD05210020FFF799FE00212420FFF799
:1019800095FE00212520FFF791FE00212620FFF77C
:101990008DFE00212720FFF789FE01212820FFF777
:1019A00085FE01212920FFF781FE01212A20FFF772
:1019B0007DFE01212B20FFF779FE01212C20FFF76E
:1019C00075FE01212D20FFF771FE08BD845A00101D
:1019D0002DE9F04F01F1FF3C5FEA9C0A00F102099A
:1019E000B0F900404AD00A30D0464FF0040E00272C
:1019F00030F9085C30F906BCAEF10306A542C8BF59
:101A00003746AC42B8BF2C46AEF102055C45B8BFC4
:101A10002F465C45B8BF5C4630F9046C25460EF194
:101A2000FF3B30F9024CB542B8BF5F46B542B8BF84
:101A30003546A542B8BF7746AC42B8BF2C46B8F190
:101A4000010800F108000EF1040ED1D109EBCA091A
:101A50001CF0030C14D0CCEB010C39F9020BA042A2
:101A6000C8BF6746A0420CF1010CB8BF20466145D3
:101A70000446F2D110801F60BDE8F08F5746E7E7BB
:101A80002046F7E72DE9F04F83B001F180440D9D2A
:101A90000190013C4FEA850AA0004FEAC10E0139CE
:101AA0000090524453442FD000F104090C98019C3B
:101AB000AEF1080E86440C98A14400F10808A34634
:101AC0004FF0000C5BF8044F52F80C0044FB00F59B
:101AD00059F8046D53F80C7026FB075546FB17F6B2
:101AE00024FB106000142C144642013928F8020C23
:101AF00028F8044CD444AEF80660AEF8044008F16F
:101B00000408AEF1040EDDD101980C9CB0F902205E
:101B1000B0F9003000999B1A214400225B108B80A1
:101B2000CA80B0F90010B0F9023062800B445B103B
:101B3000238003B0BDE8F08F2DE9F04F16460279FF
:101B40000468436985B0012A054603934FEA5404AB
:101B50000F460FD018466B7900F0B6FC2B69EA6887
:101B6000AD680195009621463846FFF78BFF05B01A
:101B7000BDE8F08F00F1080393E808114FEA8409EB
:101B80000CB309F1040989444FEA830AB34659F8B2
:101B9000041DDCF800E041FB0EF057F8043BD8F8D8
:101BA000002023FB020021FB1EF1494242FB1312DD
:101BB000130C1B0443EA1043013C4BF8043BD44490
:101BC000D044E4D12A796B790398314600F07CFC4B
:101BD0002B68002BCBD0023E002236F9023F5B007F
:101BE00033802B6801329342F7D805B0BDE8F08FFF
:101BF00089B230B4B1F5007F314D324C027143717E
:101C00000160C560046149D010D9B1F5006F4CD0B6
:101C100033D9B1F5805F1FD0B1F5005F4CD10122FF
:101C2000294B8260436130BC0020704740292ED090
:101C300019D9802909D0B1F5807F3DD12022234BCD
:101C40008260436130BC002070474022204B82609C
:101C5000436130BC0020704702221E4B826043610A
:101C600030BC00207047202926D14FF480721A4BD7
:101C70008260436130BC00207047B1F5806F1BD19A
:101C80000822164B8260436130BC002070478022DE
:101C9000134B8260436130BC002070471022114B0F
:101CA0008260436130BC0020704704220E4B82608A
:101CB000436130BC002070474FF0FF3030BC7047AC
:101CC0009031001A9071001AF0B1001AA0B1001AF8
:101CD000D0B1001AE0B1001A00B2001AB0B1001A77
:101CE00010B2001A90B1001AC0B1001A2DE9F04FDD
:101CF0008FB099421C460693079004D20B46079278
:101D0000214602460693069B0131C91AB3F1010927
:101D10000A9108BF194600F09580079EB2F900109D
:101D20001F46B6F9003003FB01F31899DB130B8053
:101D3000022F0B4603F1020300F08280B6F9020085
:101D4000B2F90030B2F90210B6F9004000FB03F31B
:101D500004FB01331899DB134B80032F0B4603F16F
:101D600004036DD0B6F90030B2F90440B6F90200B0
:101D7000B2F90250B6F90410944604FB03F305FBD4
:101D800000333CF9060B00FB01331899DB138B8001
:101D90000B46063301933B1F029300F07682CDF889
:101DA0000C90DDF804A0DDF818900492B0464FF0D6
:101DB000040E5FEA9E0761467DD008F10805ACF18C
:101DC00008043E460023B4F9081035F9080C35F92B
:101DD00006BCB4F9062000FB013035F9043CB4F927
:101DE00004100BFB020035F902BCB4F9022003FB1E
:101DF0000103013E05F108050BFB0233A4F10804C1
:101E0000E1D108EBC700ACEBC7011EF0030207D01D
:101E100030F9025B31F90249013A05FB0433F7D18D
:101E20000EF1010EDB13F1452AF8023B0CF1020C16
:101E3000BFD1019B0299DDF80C90049A03EB41039A
:101E40000699189301F1004A0AF1FF3A032902EBBF
:101E50004A0A0A9B32D8002B00F0E481002900F0E6
:101E6000EC81022900F0F481B9F1000F00F0AA81A1
:101E70000A9B079A189F4FEA4308189B961E03EB8C
:101E8000080E1546941C35F9022F3AF9020C36F962
:101E9000023FBAF9001034F902CF02FB00F03AF920
:101EA000042C03FB01030CFB0233DB1327F8023B7A
:101EB0007745E8D10CE13B464046A6E79B081C4627
:101EC0000B9300F0B381AAF102008B080646099338
:101ED0000890DB000798CDF830A00D461A46991DF2
:101EE0000833C318C2F10802019333461344059323
:101EF00005F003030393189BCDF834900833411881
:101F00001A4602910494824691460023DAF80010A2
:101F1000DAF80200DDF824C0089F9E461D461E46E2
:101F20000AF104043A6821FB126620FB1250D4F82F
:101F30000080D4F80250616828FB12EE25FB1233B2
:101F400037F9042C37F902BC92B242EA0B42083F3F
:101F500028FB126625FB1205D4F8060034F9088F19
:101F600021FB12EE20FB1233BCF1010CDAD1019AF5
:101F7000141F039A012A00F01281022A00F0FC804B
:101F8000032A1ED1059F37F8082C37F906CC029F8B
:101F900042EA0C423F6821FB126120FB1255246883
:101FA00024FB12EE27FB1232059B33F80A3C20FB80
:101FB000131627FB035527FB13EE0199096821FB34
:101FC0001323DB1329F8023C029B08330293019B85
:101FD00008330193049BF613E8134FEAEE3E013BEE
:101FE00029F8086C29F8060C29F804EC0AF1080A0B
:101FF00009F10809049388D10B9B189ADDF830A0E9
:10200000DDF83490DF003A441892079A9B00174499
:102010000A9A12F0030E00F00B8107980699CDF88A
:102020001490013300EB430C189BDDF86090CDF861
:1020300010A08A0803EB4E0ED3000193AAEBC20353
:102040000393AAF10803029201F003089A46029E44
:1020500007F1080554460023B4F9081035F9080CB7
:1020600035F906BCB4F9062000FB013035F9043C13
:10207000B4F904100BFB020035F902BCB4F90220DC
:1020800003FB0103013E05F108050BFB0233A4F13C
:102090000804E1D1019A1744B8F1000F09D003995F
:1020A000424637F9024B31F90209013A04FB003389
:1020B000F7D1DB1329F8023BF14567460CF1020C1E
:1020C000C5D10A9BDDF810A0DDF814904FEA430853
:1020D000079B4FEA990C43449846E346BCF1000F36
:1020E00000F0868066464F46002E41D008F1080475
:1020F000AAF108003546002334F9081CB0F908207D
:1021000034F9069CB0F906C001FB023234F9043CF4
:10211000B0F9041009FB0C2234F9029CB0F902C09A
:1021200003FB0122013D04F1080409FB0C23A0F18B
:102130000800E1D108EBC601AAEBC60617F00302BE
:1021400007D031F9024B36F90209013A04FB00339A
:10215000F7D1DB13BBF1010B2EF8023B08F10208AB
:1021600007F1FF3743D0002F3ED0BE08002EBDD16F
:10217000334641465646E1E7059F37F8082C37F9C4
:10218000067C42EA074221FB126620FB12552168B9
:1021900021FB12EE0299096821FB123311E7059A1F
:1021A00032F8062C21FB026620FB025520FB12EEC2
:1021B000019931F9021C1FFA88F848EA014828FB06
:1021C0001233FEE6079B0A9A991E189B03EB420EF8
:1021D0001A4631F9020FBAF9003003FB00F3DB13A2
:1021E00022F8023B9645F4D10FB0BDE8F08FB94616
:1021F000B9F1000FF8D04B4650464146002231F964
:10220000025B30F90249013B05FB0422F7D1D213EE
:10221000B9F101092EF8022B08F10208EBD10FB039
:10222000BDE8F08FDDF860E0984651E7079FEFE6E4
:10223000DDF860E04FEA42084AE70A9B18984FEA47
:102240004308424600F0FEFD189B03EB080E3FE7F3
:10225000B9F1000F1DD00A9B079C4FEA4308189B59
:1022600003EB080E1846B4F900503AF9023C34F971
:10227000021FBAF9002001FB03F305FB0233DB1355
:1022800020F8023B8645EED122E7019B18933946A0
:10229000D8E5079B0A9A991E189B03EB420E1A4633
:1022A00031F9020FBAF9003003FB00F3DB1322F817
:1022B000023B9645F4D197E72DE9F0415FEA920E93
:1022C0002CD000F1100601F10805774656F8103CB5
:1022D00023FB03F856F80C3C23FB03FC56F8083CA0
:1022E00023FB03F456F8043C23FB03F34FEA68484E
:1022F0004FEA6C4C64145B14013F25F8088C25F8F8
:1023000006CC25F8044C25F8023C06F1100605F130
:102310000805DBD100EB0E1001EBCE0112F0030239
:1023200008D050F8043B23FB03F35B14013A21F877
:10233000023BF6D1BDE8F0812DE9F04F4D0881B0A8
:1023400000EB410716464DD004468646BC469146F2
:1023500028464FF0000859F8042BDEF8003093FAB5
:1023600028FADCF8001091FA28F1DAFA11FB9AFA4F
:1023700021F14EF8041B22FB0BF142FB1BF2130C64
:102380001B0443EA114301384CF8043BE3D12946CE
:1023900002233246204600F055F9022329463246F0
:1023A000384600F04FF904EBC505A31C33F9027C55
:1023B000B4F90260B4F90400B4F906207F00760095
:1023C0004000520023F8027C083424F8066C24F8FC
:1023D000040C24F8022CA54203F10803E6D101B055
:1023E000BDE8F08F2946022300F02CF93246294639
:1023F0003846022301B0BDE8F04F00F023B900BF1A
:102400002DE9F04F4D0881B000EB410716464DD045
:1024100004468646BC46914628464FF0000859F8C7
:10242000042BDEF8003093FA28FADCF8001091FA59
:1024300028F1DAFA11FB9AFA21F14EF8041B42FB5B
:102440000BF122FB1BF2130C1B0443EA114301386E
:102450004CF8043BE3D1294602233246204600F0E3
:102460001FFA022329463246384600F019FA04EBD7
:10247000C505A31C33F9027CB4F90260B4F9040069
:10248000B4F906207F0076004000520023F8027C59
:10249000083424F8066C24F8040C24F8022CA54215
:1024A00003F10803E6D101B0BDE8F08F294602230D
:1024B00000F0F6F9324629463846022301B0BDE85D
:1024C000F04F00F0EDB900BF70B5012A0D4604468B
:1024D0001E46018824D0B1F5807F13D008D820296A
:1024E00031D045D940290DD080292CD08EB970BD6E
:1024F000B1F5806F06D023D9B1F5006F23D0B1F5C7
:10250000805FF3D101236268284600F09BF8002E1B
:10251000EDD02846A268A189BDE8704000F067B8F8
:10252000B1F5807F1ED013D8202904D027D94029A7
:1025300018D08029DAD162682846FFF761FFD5E715
:10254000B1F5007FD2D162682846FFF7F5FECDE7EE
:10255000B1F5806F06D00ED9B1F5006FEBD0B1F5B3
:10256000805FC3D101236268284600F099F9BDE776
:102570001029BBD1C6E7B1F5007FDCD0B6E7102942
:10258000B4D1EFE74B1C012B98BF70472DE9F00346
:10259000911C9B08B1F80480B1F802900A8831F8C8
:1025A00002CC8044814402448444D9F80070D8F8B5
:1025B00000601568DCF80040C9F80060C8F80070D9
:1025C000CCF800501460D9F80470D8F8046055684D
:1025D000DCF80440C9F80460C8F80470CCF8045072
:1025E00054600831013BD5D1BDE8F00370474B1C66
:1025F000012B98BF70472DE9F003911C9B08B1F89F
:102600000480B1F802900A8831F802CC00EB580837
:1026100000EB590900EB520200EB5C0CD9F800709A
:10262000D8F800601568DCF80040C9F80060C8F808
:102630000070CCF8005014600831013BDFD1BDE8D8
:10264000F00370472DE9F04F8FB09B460191890848
:102650000E460D91890007460C900BEB4B03084486
:10266000002445189B0096460992B24629440293DD
:1026700026462246CDF800B03B6893FA22FC9CFA2D
:1026800022FC2B6893FA22F393FA22F39CFA13F8B4
:10269000DCFA13FC036893FA22F393FA22F90B682D
:1026A00093FA22F393FA22F399FA13F398FA23F99F
:1026B00047F8049BD8FA13F35EF8369029FB03FB26
:1026C00049FB13F9036893FA22F393FA22F84FEACD
:1026D00019494FEA094949EA1B4340F8043B0B6892
:1026E00093FA22F393FA22F3D8FA13F3ACFA13F91C
:1026F000ECFA13FC5EF8263023FB0CF843FB1CF3CA
:102700001B0C1B0443EA184345F8043B5EF80430F5
:1027100023FB09FC43FB19F31B0C1B0443EA1C437A
:1027200041F8043B009B1E44029BBAF1010A1C4481
:10273000A2D1DDF800B04FEA8B0306930D9B042B6A
:1027400040F28180CDF808A00A939A464FEA9A0396
:10275000002211460B9304925A1E9B0008930C9B77
:10276000079205914FEA8A0703930899039A099EF5
:102770005018059A02EB420356F822C056F82390EF
:10278000069B56F83280D3180593049A019B0D18C6
:102790009342B64601EB0504039E41D90AEB020EB3
:1027A00033682A6893FA12FBD3FA12F30093026893
:1027B000216892FA11F29BFA22F3029993FA21F11D
:1027C00031603E44DBFA22F228FB02F148FB12F2B0
:1027D000120C120442EA1142016802602268384475
:1027E000D1FA12F2009BA3FA22F1E3FA22F32CFBB6
:1027F00003FB4CFB13F31B0C1B0443EA1B432B6032
:102800003D4429FB01F349FB11F1090C0904019A2C
:1028100041EA134173469A422160D6443C44BFD8F2
:10282000039A049B04320392079A01339342049360
:102830009BD90A9B069ADDF82CA09B089200042BDA
:102840000A93069282D80C9C0D9E103454F8103CCA
:1028500054F8087C93FA17F154F80C2C54F8040C33
:1028600092FA10F591FA25F544F8105C92FA10F5F9
:10287000D1FA25F144F80C1CD3FA17F3D2FA10F26E
:10288000E3FA22F144F8081CA3FA22F3013E44F8CB
:10289000043C04F11004D9D10FB0BDE8F08F00BFA3
:1028A0002DE9F04F8FB09B46019189080E460D919E
:1028B000890007460C900BEB4B0308440024451895
:1028C0009B0096460992B246294402932646224628
:1028D000CDF800B03B6893FA22FC9CFA22FC2B68EE
:1028E00093FA22F393FA22F39CFA13F8DCFA13FC1E
:1028F000036893FA22F393FA22F90B6893FA22F30E
:1029000093FA22F399FA13F398FA23F947F8049B00
:10291000D8FA13F35EF8369049FB03FB29FB13F951
:10292000036893FA22F393FA22F84FEA19494FEA1F
:10293000094949EA1B4340F8043B0B6893FA22F328
:1029400093FA22F3D8FA13F3ECFA13F9ACFA13FC66
:102950005EF8263043FB0CF823FB1CF31B0C1B0416
:1029600043EA184345F8043B5EF8043043FB09FC96
:1029700023FB19F31B0C1B0443EA1C4341F8043BE3
:10298000009B1E44029BBAF1010A1C44A2D1DDF84F
:1029900000B04FEA8B0306930D9B042B40F281801D
:1029A000CDF808A00A939A464FEA9A0300221146EE
:1029B0000B9304925A1E9B0008930C9B079205915F
:1029C0004FEA8A0703930899039A099E5018059ABB
:1029D00002EB420356F822C056F82390069B56F8A5
:1029E0003280D3180593049A019B0D189342B64682
:1029F00001EB0504039E41D90AEB020E33682A68F5
:102A000093FA12FBD3FA12F300930268216892FA48
:102A100011F29BFA22F3029993FA21F131603E44BC
:102A2000DBFA22F248FB02F128FB12F2120C12042C
:102A300042EA11420168026022683844D1FA12F277
:102A4000009BE3FA22F1A3FA22F34CFB03FB2CFBDD
:102A500013F31B0C1B0443EA1B432B603D4449FB4F
:102A600001F329FB11F1090C0904019A41EA134110
:102A700073469A422160D6443C44BFD8039A049BD3
:102A800004320392079A0133934204939BD90A9B21
:102A9000069ADDF82CA09B089200042B0A9306925C
:102AA00082D80C9C0D9E103454F8103C54F8087CCD
:102AB00093FA17F154F80C2C54F8040C92FA10F510
:102AC00091FA25F544F8105C92FA10F5D1FA25F147
:102AD00044F80C1CD3FA17F3D2FA10F2A3FA22F13D
:102AE00044F8081CE3FA22F3013E44F8043C04F1E4
:102AF0001004D9D10FB0BDE8F08F00BF53B94AB967
:102B0000002908BF00281CBF4FF0FF314FF0FF30F5
:102B100000F072B9ADF1080C6DE904CE00F006F8D2
:102B2000DDF804E0DDE9022304B070472DE9F04749
:102B3000089E04468846002B4BD18A42154667D929
:102B4000B2FA82F24AB1C2F1200701FA02F320FA86
:102B500007F7954047EA030894404FEA154E230CC7
:102B6000B8FBFEF71FFA85FC0EFB178843EA084303
:102B700007FB0CF1994209D9EB1807F1FF3080F0FF
:102B80001B81994240F21881023F2B445B1AA4B288
:102B9000B3FBFEF00EFB103344EA034400FB0CFCD5
:102BA000A44509D92C1900F1FF3380F00781A44511
:102BB00040F2048102382C4440EA0740A4EB0C04A4
:102BC00000271EB1D4400023C6E900433946BDE8C2
:102BD000F0878B4209D9002E00F0EB800027C6E970
:102BE000000138463946BDE8F087B3FA83F7002F75
:102BF00047D18B4202D3824200F2FA80841A61EB01
:102C0000030301209846002EE0D0C6E90048DDE726
:102C100002B9FFDEB2FA82F2002A40F08F80491B2F
:102C20004FEA154E1FFA85F80127B1FBFEFC230C75
:102C30000EFB1C1143EA014308FB0CF1994207D932
:102C4000EB180CF1FF3002D2994200F2CD8084469D
:102C5000591AA3B2B1FBFEF00EFB101443EA044470
:102C600008FB00F8A04507D92C1900F1FF3302D268
:102C7000A04500F2B6801846A4EB080440EA0C40D8
:102C80009FE7C7F1200CBB4022FA0CFE4EEA030E70
:102C900001FA07F420FA0CF521FA0CF34FEA1E486A
:102CA0002543B3FBF8F92C0C08FB19331FFA8EFAF5
:102CB00044EA034309FB0AF49C4202FA07F200FAD1
:102CC00007F10BD91EEB030309F1FF3080F0878079
:102CD0009C4240F28480A9F1020973441B1BADB2EF
:102CE000B3FBF8F008FB103345EA034400FB0AFA93
:102CF000A24508D91EEB040400F1FF336BD2A245B4
:102D000069D90238744440EA0940A0FB0289A4EB67
:102D10000A044C45C2464B4654D351D0002E69D0CC
:102D2000B1EB0A0564EB030404FA0CFCFD40FC4023
:102D30004CEA0505C6E90054002747E7C2F1200325
:102D400020FA03F7954001FA02F021FA03F34FEA63
:102D5000154E3843010CB3FBFEF71FFA85F80EFB46
:102D6000173341EA034107FB08F38B4204FA02F4EC
:102D700007D9691807F1FF3C2FD28B422DD9023FAA
:102D80002944CB1A81B2B3FBFEF00EFB103341EAAB
:102D9000034100FB08F38B4207D9691800F1FF3C9F
:102DA00017D28B4215D902382944C91A40EA07477D
:102DB0003BE73746304609E70746E7E61846FBE6B5
:102DC0004145ABD2B8EB020A69EB0E02013813465B
:102DD000A4E76046E9E7184695E76746D1E78146EC
:102DE0007CE702382C4447E7ACF1020C2B442FE778
:102DF000384608E73746E9E6704700BF70B50D4E24
:102E00000D4D761BB61006D00024013455F8043B56
:102E10009847A642F9D1094E094D761BFDF78FFB65
:102E2000B61006D00024013455F8043B9847A6425A
:102E3000F9D170BDE84F011AE84F011AEC4F011AA1
:102E4000E84F011AF0B4860743D0541E002A3ED042
:102E5000CAB2034602E014F1FF3438D303F8012B61
:102E60009D07F8D1032C2BD9CDB245EA05250F2CAF
:102E700045EA054516D9A4F110073F0903F12006DC
:102E800006EB071603F1100242E9045542E9025528
:102E90001032B242F8D104F00F040137032C03EBD7
:102EA00007130DD91E462246043A032A46F8045B4E
:102EB000FAD8221F22F003020432134404F0030460
:102EC0002CB1C9B21C4403F8011B9C42FBD1F0BCDD
:102ED000704714460346C5E768656164657200FF84
:102EE00000000000000400080009010905000501B8
:102EF0000502000E010B010C030003030304050F80
:102F000005100305030603070208FFFF001BB700B7
:102F1000010F0101020044000201440002024400CA
:102F2000020A4000020B4000020C40000100500069
:102F3000010150000102500001065000060150003E
:102F40000604500006055000060754000608540009
:102F500006095000060A5000060B5000060C5000EF
:102F60000F04F0000103D5000104D500070116008D
:102F700007025600020352000204520009055200E3
:102F80000906570006025700C201A2018201620130
:102F900081008200A100A20001020408030F0F0FAC
:102FA000FF000000000005000A00200024000900C6
:102FB0004000400005006000A6000400C000C300FF
:102FC0000200E000E0000100000100010300200118
:102FD00020010600400140010C004201420119009D
:102FE000620162011300820182011200A201A201AA
:102FF0001100C201C2011000E201E2010F00020251
:1030000002020E00220222020D00230223021C00F3
:1030100000010100090901000A090100010701017D
:1030200002090100060901000C0901010D09010056
:103030000E0901000F09010010090100110901002A
:1030400012090100130901001411010019110100F6
:103050001A1101001B1101000010084006040206AD
:1030600005021800001008400905070906071800A6
:1030700000200840000000000000190000100C4073
:103080000701060702061A0000100C40010F01019B
:1030900010011A0000200C400203020204021B006F
:1030A000801A06000A000000040100020107050062
:1030B000030D0105000108040200020204030002DE
:1030C000030400000200070400030C0302040509C6
:1030D00003010405080203040503020404050406B1
:1030E0000C000208060B000307060900030506078B
:1030F00004050F0604000303040400020404050091
:1031000002050406000206040804050C040A04056E
:103110000E010300000A011400000F011200000D4F
:10312000011100000C0110000003070700030F004D
:10313000010000010000000000060A000306060866
:103140000405100605000304060100030004090439
:10315000050D010400000B010F000002010000003A
:103160000401010000080102000009010600010934
:103170000200040500020104050102020405020226
:103180000A00000E020B00010B020C00010CFFFFF5
:10319000004000C0F33F00C0E73F00C0DA3F00C07E
:1031A000CE3F00C0C13F00C0B53F00C0A83F00C037
:1031B0009B3F00C08F3F00C0823F00C0763F01C0F0
:1031C000693F01C05D3F01C0503F01C0443F01C0A5
:1031D000373F01C02A3F01C01E3F02C0113F02C05D
:1031E000053F02C0F83E02C0EC3E02C0DF3E03C015
:1031F000D23E03C0C63E03C0B93E03C0AD3E04C0CC
:10320000A03E04C0943E04C0873E04C07A3E05C080
:103210006E3E05C0613E05C0553E06C0483E06C034
:103220003C3E06C02F3E07C0233E07C0163E07C0E7
:10323000093E08C0FD3D08C0F03D09C0E43D09C09D
:10324000D73D09C0CB3D0AC0BE3D0AC0B23D0BC050
:10325000A53D0BC0983D0CC08C3D0CC07F3D0DC002
:10326000733D0DC0663D0EC05A3D0EC04D3D0FC0B2
:10327000403D0FC0343D10C0273D10C01B3D11C064
:103280000E3D11C0023D12C0F53C13C0E93C13C015
:10329000DC3C14C0D03C14C0C33C15C0B63C16C0C6
:1032A000AA3C16C09D3C17C0913C18C0843C18C075
:1032B000783C19C06B3C1AC05F3C1AC0523C1BC022
:1032C000453C1CC0393C1DC02C3C1DC0203C1EC0D0
:1032D000133C1FC0073C20C0FA3B20C0EE3B21C07E
:1032E000E13B22C0D53B23C0C83B24C0BC3B24C02B
:1032F000AF3B25C0A23B26C0963B27C0893B28C0D8
:103300007D3B29C0703B2AC0643B2BC0573B2BC080
:103310004B3B2CC03E3B2DC0323B2EC0253B2FC02B
:10332000193B30C00C3B31C0003B32C0F33A33C0D4
:10333000E63A34C0DA3A35C0CD3A36C0C13A37C081
:10334000B43A38C0A83A39C09B3A3AC08F3A3BC029
:10335000823A3CC0763A3DC0693A3FC05D3A40C0CF
:10336000503A41C0443A42C0373A43C02B3A44C075
:103370001E3A45C0123A47C0053A48C0F93949C01B
:10338000EC394AC0E0394BC0D3394CC0C7394EC0C4
:10339000BA394FC0AE3950C0A13951C0953953C068
:1033A000883954C07C3955C06F3956C0633958C00C
:1033B000563959C04A395AC03D395CC031395DC0AF
:1033C00024395EC0183960C00B3961C0FF3862C053
:1033D000F23864C0E63865C0D93867C0CD3868C0F7
:1033E000C03869C0B4386BC0A7386CC09B386EC099
:1033F0008E386FC0823871C0753872C0693874C039
:103400005C3875C0503877C0433878C037387AC0D8
:103410002A387BC01E387DC011387EC0053880C078
:10342000F93781C0EC3783C0E03785C0D33786C019
:10343000C73788C0BA3789C0AE378BC0A1378DC0B7
:1034400095378EC0883790C07C3792C06F3793C055
:10345000633795C0573797C04A3798C03E379AC0F0
:1034600031379CC025379EC018379FC00C37A1C08C
:10347000FF36A3C0F336A5C0E736A6C0DA36A8C02B
:10348000CE36AAC0C136ACC0B536AEC0A836AFC0C5
:103490009C36B1C09036B3C08336B5C07736B7C05E
:1034A0006A36B9C05E36BBC05136BDC04536BEC0F7
:1034B0003936C0C02C36C2C02036C4C01336C6C090
:1034C0000736C8C0FA35CAC0EE35CCC0E235CEC02A
:1034D000D535D0C0C935D2C0BC35D4C0B035D6C0C2
:1034E000A435D8C09735DAC08B35DCC07E35DEC058
:1034F0007235E0C06635E2C05935E4C04D35E7C0ED
:103500004035E9C03435EBC02835EDC01B35EFC080
:103510000F35F1C00335F3C0F634F6C0EA34F8C015
:10352000DD34FAC0D134FCC0C534FEC0B83400C1AB
:10353000AC3403C1A03405C1933407C1873409C139
:103540007B340CC16E340EC1623410C1553413C1CA
:10355000493415C13D3417C1303419C124341CC15C
:1035600018341EC10B3420C1FF3323C1F33325C1EE
:10357000E63328C1DA332AC1CE332CC1C1332FC17F
:10358000B53331C1A93334C19C3336C1903338C10E
:1035900084333BC177333DC16B3340C15F3342C19C
:1035A000523345C1463347C13A334AC12D334CC12A
:1035B00021334FC1153351C1083354C1FC3256C1B8
:1035C000F03259C1E4325BC1D7325EC1CB3261C146
:1035D000BF3263C1B23266C1A63268C19A326BC1D2
:1035E0008E326EC1813270C1753273C1693276C15B
:1035F0005C3278C150327BC144327EC1383280C1E6
:103600002B3283C11F3286C1133289C107328BC16D
:10361000FA318EC1EE3191C1E23194C1D53196C1FA
:10362000C93199C1BD319CC1B1319FC1A431A2C181
:103630009831A4C18C31A7C18031AAC17431ADC108
:103640006731B0C15B31B3C14F31B6C14331B8C18D
:103650003631BBC12A31BEC11E31C1C11231C4C114
:103660000531C7C1F930CAC1ED30CDC1E130D0C19B
:10367000D530D3C1C830D6C1BC30D9C1B030DCC11F
:10368000A430DFC19830E2C18B30E5C17F30E8C1A2
:103690007330EBC16730EEC15B30F1C14E30F4C125
:1036A0004230F7C13630FAC12A30FDC11E3001C2A6
:1036B000123004C2053007C2F92F0AC2ED2F0DC225
:1036C000E12F10C2D52F13C2C92F17C2BC2F1AC2A7
:1036D000B02F1DC2A42F20C2982F23C28C2F27C227
:1036E000802F2AC2742F2DC2672F30C25B2F34C2A5
:1036F0004F2F37C2432F3AC2372F3EC22B2F41C222
:103700001F2F44C2132F47C2062F4BC2FA2E4EC2A0
:10371000EE2E51C2E22E55C2D62E58C2CA2E5CC21F
:10372000BE2E5FC2B22E62C2A62E66C2992E69C29A
:103730008D2E6DC2812E70C2752E73C2692E77C216
:103740005D2E7AC2512E7EC2452E81C2392E85C28F
:103750002D2E88C2212E8CC2152E8FC2092E93C207
:10376000FC2D96C2F02D9AC2E42D9DC2D82DA1C287
:10377000CC2DA5C2C02DA8C2B42DACC2A82DAFC2FD
:103780009C2DB3C2902DB7C2842DBAC2782DBEC273
:103790006C2DC1C2602DC5C2542DC9C2482DCCC2EA
:1037A0003C2DD0C2302DD4C2242DD8C2182DDBC25E
:1037B0000C2DDFC2002DE3C2F42CE6C2E82CEAC2D5
:1037C000DC2CEEC2D02CF2C2C42CF5C2B82CF9C24B
:1037D000AC2CFDC2A02C01C3942C05C3882C08C3BB
:1037E0007C2C0CC3702C10C3642C14C3582C18C32D
:1037F0004C2C1CC3402C20C3342C23C3282C27C39F
:103800001C2C2BC3102C2FC3052C33C3F92B37C30F
:10381000ED2B3BC3E12B3FC3D52B43C3C92B47C380
:10382000BD2B4BC3B12B4FC3A52B53C3992B57C3F0
:103830008D2B5BC3812B5FC3752B63C36A2B67C35F
:103840005E2B6BC3522B6FC3462B73C33A2B77C3CC
:103850002E2B7BC3222B7FC3162B83C30A2B87C33C
:10386000FF2A8CC3F32A90C3E72A94C3DB2A98C3A8
:10387000CF2A9CC3C32AA0C3B72AA5C3AC2AA9C315
:10388000A02AADC3942AB1C3882AB5C37C2ABAC37F
:10389000702ABEC3652AC2C3592AC6C34D2ACAC3E9
:1038A000412ACFC3352AD3C3292AD7C31E2ADCC352
:1038B000122AE0C3062AE4C3FA29E9C3EE29EDC3BC
:1038C000E329F1C3D729F6C3CB29FAC3BF29FEC325
:1038D000B42903C4A82907C49C290BC4902910C487
:1038E000842914C4792919C46D291DC4612922C4ED
:1038F000552926C44A292AC43E292FC4322933C453
:10390000262938C41B293CC40F2941C4032945C4B6
:10391000F7284AC4EC284EC4E02853C4D42857C41E
:10392000C9285CC4BD2861C4B12865C4A5286AC47F
:103930009A286EC48E2873C4822878C477287CC4E1
:103940006B2881C45F2885C454288AC448288FC442
:103950003C2893C4312898C425289DC41928A1C4A3
:103960000E28A6C40228ABC4F627B0C4EB27B4C403
:10397000DF27B9C4D327BEC4C827C2C4BC27C7C465
:10398000B127CCC4A527D1C49927D6C48E27DAC4C1
:103990008227DFC47727E4C46B27E9C45F27EEC41E
:1039A0005427F2C44827F7C43D27FCC4312701C57A
:1039B000252706C51A270BC50E2710C5032715C5D1
:1039C000F7261AC5EC261EC5E02623C5D42628C531
:1039D000C9262DC5BD2632C5B22637C5A6263CC58B
:1039E0009B2641C58F2646C584264BC5782650C5E3
:1039F0006D2655C561265AC556265FC54A2664C53B
:103A00003F2669C533266EC5282673C51C2678C592
:103A100011267EC5052683C5FA2588C5EE258DC5E8
:103A2000E32592C5D72597C5CC259CC5C025A1C542
:103A3000B525A7C5A925ACC59E25B1C59225B6C596
:103A40008725BBC57C25C1C57025C6C56525CBC5E9
:103A50005925D0C54E25D5C54225DBC53725E0C53E
:103A60002C25E5C52025EAC51525F0C50925F5C590
:103A7000FE24FAC5F32400C6E72405C6DC240AC6E2
:103A8000D02410C6C52415C6BA241AC6AE2420C632
:103A9000A32425C698242AC68C2430C6812435C682
:103AA00076243BC66A2440C65F2445C654244BC6D0
:103AB000482450C63D2456C632245BC6262461C61F
:103AC0001B2466C610246CC6042471C6F92377C66D
:103AD000EE237CC6E22382C6D72387C6CC238DC6BD
:103AE000C12392C6B52398C6AA239DC69F23A3C609
:103AF0009423A8C68823AEC67D23B4C67223B9C654
:103B00006723BFC65B23C5C65023CAC64523D0C69C
:103B10003A23D5C62E23DBC62323E1C61823E6C6E7
:103B20000D23ECC60123F2C6F622F7C6EB22FDC632
:103B3000E02203C7D52209C7CA220EC7BE2214C776
:103B4000B3221AC7A82220C79D2225C792222BC7BD
:103B5000872231C77B2237C770223DC7652242C703
:103B60005A2248C74F224EC7442254C739225AC747
:103B70002D225FC7222265C717226BC70C2271C78F
:103B8000012277C7F6217DC7EB2183C7E02189C7D2
:103B9000D5218FC7CA2195C7BE219AC7B321A0C717
:103BA000A821A6C79D21ACC79221B2C78721B8C75B
:103BB0007C21BEC77121C4C76621CAC75B21D0C79B
:103BC0005021D6C74521DCC73A21E2C72F21E8C7DB
:103BD0002421EEC71921F5C70E21FBC7032101C817
:103BE000F82007C8ED200DC8E22013C8D72019C857
:103BF000CC201FC8C12025C8B6202BC8AB2032C896
:103C0000A02038C895203EC88A2044C87F204AC8D2
:103C1000742050C8692057C85E205DC8542063C80E
:103C2000492069C83E2070C8332076C828207CC847
:103C30001D2082C8122089C807208FC8FC1F95C884
:103C4000F11F9BC8E71FA2C8DC1FA8C8D11FAEC8C0
:103C5000C61FB5C8BB1FBBC8B01FC1C8A51FC8C8F9
:103C60009B1FCEC8901FD4C8851FDBC87A1FE1C830
:103C70006F1FE8C8651FEEC85A1FF4C84F1FFBC866
:103C8000441F01C9391F08C92F1F0EC9241F15C998
:103C9000191F1BC90E1F21C9031F28C9F91E2EC9D0
:103CA000EE1E35C9E31E3BC9D81E42C9CE1E48C907
:103CB000C31E4FC9B81E55C9AD1E5CC9A31E63C93A
:103CC000981E69C98D1E70C9831E76C9781E7DC96C
:103CD0006D1E83C9621E8AC9581E91C94D1E97C99F
:103CE000421E9EC9381EA4C92D1EABC9221EB2C9D0
:103CF000181EB8C90D1EBFC9021EC6C9F81DCCC901
:103D0000ED1DD3C9E21DDAC9D81DE0C9CD1DE7C933
:103D1000C31DEEC9B81DF5C9AD1DFBC9A31D02CA5F
:103D2000981D09CA8E1D10CA831D16CA781D1DCA8A
:103D30006E1D24CA631D2BCA591D32CA4E1D38CAB6
:103D4000441D3FCA391D46CA2E1D4DCA241D54CAE2
:103D5000191D5BCA0F1D61CA041D68CAFA1C6FCA0F
:103D6000EF1C76CAE51C7DCADA1C84CAD01C8BCA3B
:103D7000C51C92CABB1C99CAB01C9FCAA61CA6CA65
:103D80009B1CADCA911CB4CA861CBBCA7C1CC2CA8F
:103D9000721CC9CA671CD0CA5D1CD7CA521CDECAB5
:103DA000481CE5CA3D1CECCA331CF3CA291CFACADC
:103DB0001E1C01CB141C08CB091C0FCBFF1B16CB00
:103DC000F51B1ECBEA1B25CBE01B2CCBD51B33CB25
:103DD000CB1B3ACBC11B41CBB61B48CBAC1B4FCB4B
:103DE000A21B56CB971B5ECB8D1B65CB831B6CCB6D
:103DF000781B73CB6E1B7ACB641B81CB591B89CB91
:103E00004F1B90CB451B97CB3B1B9ECB301BA5CBB1
:103E1000261BADCB1C1BB4CB111BBBCB071BC2CBD2
:103E2000FD1ACACBF31AD1CBE81AD8CBDE1AE0CBF5
:103E3000D41AE7CBCA1AEECBBF1AF5CBB51AFDCB15
:103E4000AB1A04CCA11A0BCC971A13CC8C1A1ACC2F
:103E5000821A21CC781A29CC6E1A30CC641A38CC4C
:103E60005A1A3FCC4F1A46CC451A4ECC3B1A55CC69
:103E7000311A5DCC271A64CC1D1A6BCC131A73CC83
:103E8000081A7ACCFE1982CCF41989CCEA1991CCA3
:103E9000E01998CCD619A0CCCC19A7CCC219AFCCBC
:103EA000B819B6CCAE19BECCA419C5CC9A19CDCCD4
:103EB0008F19D4CC8519DCCC7B19E3CC7119EBCCF0
:103EC0006719F3CC5D19FACC531902CD491909CD04
:103ED0003F1911CD351919CD2B1920CD211928CD18
:103EE000171930CD0D1937CD03193FCDF91846CD2F
:103EF000EF184ECDE61856CDDC185DCDD21865CD45
:103F0000C8186DCDBE1875CDB4187CCDAA1884CD57
:103F1000A0188CCD961893CD8C189BCD8218A3CD6C
:103F20007818ABCD6F18B2CD6518BACD5B18C2CD7D
:103F30005118CACD4718D2CD3D18D9CD3318E1CD8F
:103F40002A18E9CD2018F1CD1618F9CD0C1801CE9C
:103F5000021808CEF81710CEEF1718CEE51720CEAE
:103F6000DB1728CED11730CEC81738CEBE1740CEBB
:103F7000B41747CEAA174FCEA01757CE97175FCECC
:103F80008D1767CE83176FCE7A1777CE70177FCED7
:103F9000661787CE5C178FCE531797CE49179FCEE3
:103FA0003F17A7CE3617AFCE2C17B7CE2217BFCEEE
:103FB0001917C7CE0F17CFCE0517D7CEFC16DFCEF9
:103FC000F216E7CEE816EFCEDF16F7CED516FFCE07
:103FD000CB1607CFC21610CFB81618CFAF1620CF0A
:103FE000A51628CF9B1630CF921638CF881640CF13
:103FF0007F1648CF751651CF6C1659CF621661CF18
:10400000591669CF4F1671CF451679CF3C1682CF1E
:1040100032168ACF291692CF1F169ACF1616A3CF23
:104020000C16ABCF0316B3CFF915BBCFF015C4CF29
:10403000E615CCCFDD15D4CFD415DCCFCA15E5CF2E
:10404000C115EDCFB715F5CFAE15FECFA41506D02F
:104050009B150ED0921516D088151FD07F1527D02E
:10406000751530D06C1538D0631540D0591549D02E
:10407000501551D0471559D03D1562D034156AD02E
:104080002A1573D021157BD0181583D00E158CD02E
:10409000051594D0FC149DD0F314A5D0E914AED02E
:1040A000E014B6D0D714BFD0CD14C7D0C414D0D02C
:1040B000BB14D8D0B214E0D0A814E9D09F14F2D029
:1040C0009614FAD08D1403D183140BD17A1414D121
:1040D00071141CD1681425D15F142DD1551436D11B
:1040E0004C143ED1431447D13A1450D1311458D115
:1040F000281461D11E1469D1151472D10C147BD10E
:10410000031483D1FA138CD1F11395D1E8139DD107
:10411000DF13A6D1D513AFD1CC13B7D1C313C0D100
:10412000BA13C9D1B113D1D1A813DAD19F13E3D1F6
:104130009613EBD18D13F4D18413FDD17B1306D2EA
:1041400072130ED2691317D2601320D2571329D2DB
:104150004E1331D245133AD23C1343D233134CD2CF
:104160002A1355D221135DD2181366D20F136FD2C2
:10417000061378D2FD1281D2F4128AD2EB1292D2B7
:10418000E2129BD2D912A4D2D112ADD2C812B6D2A9
:10419000BF12BFD2B612C8D2AD12D1D2A412D9D298
:1041A0009B12E2D29212EBD28A12F4D28112FDD289
:1041B000781206D36F120FD3661218D35D1221D373
:1041C00055122AD34C1233D343123CD33A1245D35F
:1041D00031124ED3291257D3201260D3171269D34C
:1041E0000E1272D306127BD3FD1184D3F4118DD33A
:1041F000EB1196D3E3119FD3DA11A8D3D111B1D328
:10420000C911BAD3C011C3D3B711CCD3AF11D5D311
:10421000A611DFD39D11E8D39511F1D38C11FAD3F8
:10422000831103D47B110CD4721115D469111ED4DF
:10423000611128D4581131D450113AD4471143D4C4
:104240003E114CD4361155D42D115FD4251168D4AC
:104250001C1171D414117AD40B1183D403118DD491
:10426000FA1096D4F2109FD4E910A8D4E010B2D47A
:10427000D810BBD4D010C4D4C710CDD4BF10D7D45D
:10428000B610E0D4AE10E9D4A510F3D49D10FCD440
:10429000941005D58C100ED5831018D57B1021D520
:1042A00073102AD56A1034D562103DD5591047D500
:1042B000511050D5491059D5401063D538106CD5E0
:1042C000301075D527107FD51F1088D5161092D5C0
:1042D0000E109BD50610A4D5FE0FAED5F50FB7D5A1
:1042E000ED0FC1D5E50FCAD5DC0FD4D5D40FDDD580
:1042F000CC0FE6D5C40FF0D5BB0FF9D5B30F03D65D
:10430000AB0F0CD6A30F16D69A0F1FD6920F29D635
:104310008A0F32D6820F3CD6790F45D6710F4FD611
:10432000690F59D6610F62D6590F6CD6510F75D6E9
:10433000480F7FD6400F88D6380F92D6300F9BD6C5
:10434000280FA5D6200FAFD6180FB8D6100FC2D69B
:10435000070FCBD6FF0ED5D6F70EDFD6EF0EE8D679
:10436000E70EF2D6DF0EFCD6D70E05D7CF0E0FD74D
:10437000C70E19D7BF0E22D7B70E2CD7AF0E36D720
:10438000A70E3FD79F0E49D7970E53D78F0E5CD7F6
:10439000870E66D77F0E70D7770E7AD76F0E83D7CA
:1043A000670E8DD75F0E97D7570EA0D74F0EAAD79F
:1043B000470EB4D7400EBED7380EC8D7300ED1D76F
:1043C000280EDBD7200EE5D7180EEFD7100EF8D742
:1043D000080E02D8010E0CD8F90D16D8F10D20D810
:1043E000E90D2AD8E10D33D8D90D3DD8D20D47D8E3
:1043F000CA0D51D8C20D5BD8BA0D65D8B20D6FD8B1
:10440000AB0D78D8A30D82D89B0D8CD8930D96D880
:104410008C0DA0D8840DAAD87C0DB4D8750DBED84B
:104420006D0DC8D8650DD2D85D0DDCD8560DE6D817
:104430004E0DEFD8460DF9D83F0D03D9370D0DD9E4
:10444000300D17D9280D21D9200D2BD9190D35D9AB
:10445000110D3FD9090D49D9020D53D9FA0C5DD977
:10446000F30C67D9EB0C71D9E30C7BD9DC0C85D943
:10447000D40C8FD9CD0C9AD9C50CA4D9BE0CAED909
:10448000B60CB8D9AF0CC2D9A70CCCD9A00CD6D9D0
:10449000980CE0D9910CEAD9890CF4D9820CFED998
:1044A0007A0C08DA730C13DA6B0C1DDA640C27DA59
:1044B0005D0C31DA550C3BDA4E0C45DA460C4FDA1E
:1044C0003F0C5ADA380C64DA300C6EDA290C78DAE0
:1044D000210C82DA1A0C8CDA130C97DA0B0CA1DAA5
:1044E000040CABDAFD0BB5DAF50BBFDAEE0BCADA6A
:1044F000E70BD4DAE00BDEDAD80BE8DAD10BF3DA2B
:10450000CA0BFDDAC20B07DBBB0B11DBB40B1CDBE8
:10451000AD0B26DBA50B30DB9E0B3BDB970B45DBA6
:10452000900B4FDB890B59DB810B64DB7A0B6EDB65
:10453000730B78DB6C0B83DB650B8DDB5E0B97DB22
:10454000560BA2DB4F0BACDB480BB6DB410BC1DBE0
:104550003A0BCBDB330BD5DB2C0BE0DB250BEADB9B
:104560001E0BF5DB160BFFDB0F0B09DC080B14DC55
:10457000010B1EDCFA0A29DCF30A33DCEC0A3DDC11
:10458000E50A48DCDE0A52DCD70A5DDCD00A67DCCB
:10459000C90A72DCC20A7CDCBB0A86DCB40A91DC84
:1045A000AD0A9BDCA60AA6DC9F0AB0DC990ABBDC3C
:1045B000920AC5DC8B0AD0DC840ADADC7D0AE5DCF1
:1045C000760AEFDC6F0AFADC680A04DD610A0FDDA7
:1045D0005B0A19DD540A24DD4D0A2EDD460A39DD59
:1045E0003F0A44DD380A4EDD320A59DD2B0A63DD0D
:1045F000240A6EDD1D0A78DD160A83DD100A8EDDC1
:10460000090A98DD020AA3DDFB09ADDDF509B8DD75
:10461000EE09C3DDE709CDDDE009D8DDDA09E2DD29
:10462000D309EDDDCC09F8DDC60902DEBF090DDED8
:10463000B80918DEB20922DEAB092DDEA40938DE86
:104640009E0942DE97094DDE910958DE8A0962DE35
:1046500083096DDE7D0978DE760983DE70098DDEE3
:10466000690998DE6309A3DE5C09ADDE5509B8DE91
:104670004F09C3DE4809CEDE4209D8DE3B09E3DE3E
:104680003509EEDE2E09F9DE280903DF21090EDFE8
:104690001B0919DF150924DF0E092FDF080939DF8F
:1046A000010944DFFB084FDFF4085ADFEE0865DF3D
:1046B000E8086FDFE1087ADFDB0885DFD40890DFE8
:1046C000CE089BDFC808A5DFC108B0DFBB08BBDF91
:1046D000B508C6DFAE08D1DFA808DCDFA208E7DF37
:1046E0009B08F1DF9508FCDF8F0807E0890812E0DE
:1046F00082081DE07C0828E0760833E070083EE080
:10470000690849E0630854E05D085EE0570869E025
:10471000500874E04A087FE044088AE03E0895E0CB
:104720003808A0E03208ABE02B08B6E02508C1E06D
:104730001F08CCE01908D7E01308E2E00D08EDE00F
:104740000708F8E0010803E1FB070EE1F50719E1AE
:10475000EE0724E1E8072FE1E2073AE1DC0745E153
:10476000D60750E1D0075BE1CA0766E1C40771E1F3
:10477000BE077CE1B80787E1B20792E1AC079DE193
:10478000A607A8E1A007B3E19A07BEE19507CAE131
:104790008F07D5E18907E0E18307EBE17D07F6E1CB
:1047A000770701E271070CE26B0717E2650722E267
:1047B0005F072DE25A0739E2540744E24E074FE201
:1047C00048075AE2420765E23D0770E237077BE29D
:1047D000310787E22B0792E225079DE22007A8E236
:1047E0001A07B3E21407BEE20E07CAE20907D5E2D0
:1047F0000307E0E2FD06EBE2F706F6E2F20601E36C
:10480000EC060DE3E60618E3E10623E3DB062EE300
:10481000D5063AE3D00645E3CA0650E3C5065BE396
:10482000BF0667E3B90672E3B4067DE3AE0688E32C
:10483000A80694E3A3069FE39D06AAE39806B5E3C2
:104840009206C1E38D06CCE38706D7E38206E2E356
:104850007C06EEE37706F9E3710604E46C0610E4E7
:1048600066061BE4610626E45B0632E456063DE478
:10487000500648E44B0654E445065FE440066AE40B
:104880003B0676E4350681E430068CE42A0698E49B
:104890002506A3E42006AEE41A06BAE41506C5E42C
:1048A0001006D0E40A06DCE40506E7E40006F3E4BB
:1048B000FA05FEE4F50509E5F00515E5EA0520E54C
:1048C000E5052CE5E00537E5DB0542E5D5054EE5D8
:1048D000D00559E5CB0565E5C60570E5C1057CE564
:1048E000BB0587E5B60592E5B1059EE5AC05A9E5F2
:1048F000A705B5E5A105C0E59C05CCE59705D7E57D
:104900009205E3E58D05EEE58805FAE5830505E604
:104910007E0511E678051CE6730528E66E0533E68C
:1049200069053FE664054AE65F0556E65A0561E615
:1049300055056DE6500578E64B0584E646058FE69D
:1049400041059BE63C05A6E63705B2E63205BDE625
:104950002D05C9E62805D4E62305E0E61E05ECE6AC
:104960001A05F7E6150503E710050EE70B051AE72C
:10497000060525E7010531E7FC043DE7F70448E7B4
:10498000F20454E7EE045FE7E9046BE7E40477E739
:10499000DF0482E7DA048EE7D60499E7D104A5E7BD
:1049A000CC04B1E7C704BCE7C204C8E7BE04D3E740
:1049B000B904DFE7B404EBE7B004F6E7AB0402E8C0
:1049C000A6040EE8A10419E89D0425E8980431E83E
:1049D00093043CE88F0448E88A0454E885045FE8BF
:1049E00081046BE87C0477E8780482E873048EE83D
:1049F0006E049AE86A04A5E86504B1E86104BDE8BC
:104A00005C04C9E85704D4E85304E0E84E04ECE839
:104A10004A04F7E8450403E941040FE93C041BE9B3
:104A2000380426E9330432E92F043EE92A044AE92E
:104A3000260455E9220461E91D046DE9190479E9A8
:104A4000140484E9100490E90B049CE90704A8E924
:104A50000304B4E9FE03BFE9FA03CBE9F603D7E99F
:104A6000F103E3E9ED03EEE9E903FAE9E40306EA19
:104A7000E00312EADC031EEAD70329EAD30335EA8E
:104A8000CF0341EACA034DEAC60359EAC20365EA05
:104A9000BE0370EABA037CEAB50388EAB10394EA7C
:104AA000AD03A0EAA903ACEAA503B7EAA003C3EAF1
:104AB0009C03CFEA9803DBEA9403E7EA9003F3EA66
:104AC0008C03FFEA87030AEB830316EB7F0322EBD9
:104AD0007B032EEB77033AEB730346EB6F0352EB4A
:104AE0006B035EEB67036AEB630375EB5F0381EBBC
:104AF0005B038DEB570399EB5303A5EB4F03B1EB2E
:104B00004B03BDEB4703C9EB4303D5EB3F03E1EB9D
:104B10003B03EDEB3703F9EB330305EC2F0310EC0C
:104B20002B031CEC270328EC230334EC200340EC7C
:104B30001C034CEC180358EC140364EC100370ECE9
:104B40000C037CEC080388EC050394EC0103A0EC57
:104B5000FD02ACECF902B8ECF502C4ECF202D0ECC8
:104B6000EE02DCECEA02E8ECE602F4ECE30200ED33
:104B7000DF020CEDDB0218EDD80224EDD40230ED9B
:104B8000D0023CEDCC0248EDC90254EDC50260ED07
:104B9000C1026CEDBE0278EDBA0284EDB70290ED71
:104BA000B3029CEDAF02A8EDAC02B4EDA802C0EDDB
:104BB000A502CCEDA102D8ED9D02E4ED9A02F0ED44
:104BC0009602FCED930209EE8F0215EE8C0221EEA7
:104BD00088022DEE850239EE810245EE7E0251EE0D
:104BE0007A025DEE770269EE730275EE700281EE75
:104BF0006D028DEE690299EE6602A6EE6202B2EED9
:104C00005F02BEEE5C02CAEE5802D6EE5502E2EE3C
:104C10005102EEEE4E02FAEE4B0206EF470213EFA0
:104C200044021FEF41022BEF3E0237EF3A0243EFFF
:104C300037024FEF34025BEF300267EF2D0274EF63
:104C40002A0280EF27028CEF230298EF2002A4EFC4
:104C50001D02B0EF1A02BCEF1702C9EF1302D5EF25
:104C60001002E1EF0D02EDEF0A02F9EF070205F085
:104C7000040212F001021EF0FD012AF0FA0136F0E2
:104C8000F70142F0F4014EF0F1015BF0EE0167F044
:104C9000EB0173F0E8017FF0E5018BF0E20198F0A1
:104CA000DF01A4F0DC01B0F0D901BCF0D601C8F0FE
:104CB000D301D5F0D001E1F0CD01EDF0CA01F9F05A
:104CC000C70105F1C40112F1C1011EF1BE012AF1B3
:104CD000BB0136F1B80143F1B6014FF1B3015BF10D
:104CE000B00167F1AD0174F1AA0180F1A7018CF167
:104CF000A40198F1A201A4F19F01B1F19C01BDF1C1
:104D00009901C9F19601D5F19401E2F19101EEF119
:104D10008E01FAF18B0107F2890113F286011FF26D
:104D200083012BF2800138F27E0144F27B0150F2C4
:104D300078015CF2760169F2730175F2700181F21B
:104D40006E018EF26B019AF26801A6F26601B2F270
:104D50006301BFF26101CBF25E01D7F25B01E4F2C5
:104D60005901F0F25601FCF2540108F3510115F318
:104D70004F0121F34C012DF34A013AF3470146F369
:104D8000450152F342015FF340016BF33D0177F3BC
:104D90003B0184F3380190F336019CF33401A9F30D
:104DA0003101B5F32F01C1F32C01CEF32A01DAF35F
:104DB0002801E6F32501F3F32301FFF320010BF4AF
:104DC0001E0118F41C0124F4190130F417013DF4FC
:104DD000150149F4130155F4100162F40E016EF44B
:104DE0000C017BF4090187F4070193F40501A0F499
:104DF0000301ACF40001B8F4FE00C5F4FC00D1F4EA
:104E0000FA00DDF4F800EAF4F600F6F4F30003F536
:104E1000F1000FF5EF001BF5ED0028F5EB0034F580
:104E2000E90040F5E7004DF5E40059F5E20066F5CC
:104E3000E00072F5DE007EF5DC008BF5DA0097F518
:104E4000D800A4F5D600B0F5D400BCF5D200C9F561
:104E5000D000D5F5CE00E2F5CC00EEF5CA00FAF5AB
:104E6000C80007F6C60013F6C40020F6C2002CF6F0
:104E7000C00039F6BE0045F6BD0051F6BB005EF637
:104E8000B9006AF6B70077F6B50083F6B30090F67E
:104E9000B1009CF6AF00A8F6AE00B5F6AC00C1F6C6
:104EA000AA00CEF6A800DAF6A600E7F6A500F3F60B
:104EB000A300FFF6A1000CF79F0018F79E0025F74E
:104EC0009C0031F79A003EF798004AF7970057F791
:104ED000950063F793006FF792007CF7900088F7D6
:104EE0008E0095F78D00A1F78B00AEF78900BAF719
:104EF0008800C7F78600D3F78500E0F78300ECF75A
:104F00008100F9F7800005F87E0011F87D001EF899
:104F10007B002AF87A0037F8780043F8770050F8D9
:104F200075005CF8740069F8720075F8710082F819
:104F30006F008EF86E009BF86C00A7F86B00B4F859
:104F40006900C0F86800CDF86700D9F86500E6F898
:104F50006400F2F86200FFF861000BF9600018F9D4
:104F60005E0024F95D0031F95C003DF95A004AF910
:104F7000590056F9580063F956006FF955007CF94D
:104F8000540088F9530095F95100A1F95000AEF989
:104F90004F00BAF94E00C7F94C00D3F94B00E0F9C5
:104FA0004A00ECF94900F9F9480005FA470012FAFD
:104FB00045001EFA44002BFA430037FA420044FA37
:104FC000410050FA40005DFA3F0069FA3D0076FA70
:104FD0003C0082FA3B008FFA3A009BFA3900A8FAAB
:104FE0003800B4FA3700C1FA3600CDFA3500DAFAE3
:104FF0003400E6FA3300F3FA320000FB31000CFB18
:10500000300019FB2F0025FB2E0032FB2D003EFB4C
:105010002C004BFB2B0057FB2B0064FB2A0070FB82
:1050200029007DFB280089FB270096FB2600A2FBB8
:105030002500AFFB2400BCFB2400C8FB2300D5FBEC
:105040002200E1FB2100EEFB2000FAFB200007FC20
:105050001F0013FC1E0020FC1D002CFC1D0039FC51
:105060001C0045FC1B0052FC1A005FFC1A006BFC84
:10507000190078FC180084FC180091FC17009DFCB6
:105080001600AAFC1600B6FC1500C3FC1400D0FCE8
:105090001400DCFC1300E9FC1300F5FC120002FD17
:1050A00011000EFD11001BFD100027FD100034FD46
:1050B0000F0040FD0F004DFD0E005AFD0E0066FD75
:1050C0000D0073FD0D007FFD0C008CFD0C0098FDA4
:1050D0000B00A5FD0B00B2FD0A00BEFD0A00CBFDD2
:1050E0000900D7FD0900E4FD0900F0FD0800FDFD01
:1050F000080009FE070016FE070023FE07002FFE2A
:1051000006003CFE060048FE060055FE050061FE56
:1051100005006EFE05007AFE040087FE040094FE82
:105120000400A0FE0400ADFE0300B9FE0300C6FEAD
:105130000300D2FE0300DFFE0200ECFE0200F8FED8
:10514000020005FF020011FF02001EFF01002AFFFE
:10515000010037FF010044FF010050FF01005DFF27
:10516000010069FF010076FF000082FF00008FFF51
:1051700000009BFF0000A8FF0000B5FF0000C1FF7A
:105180000000CEFF0000DAFF0000E7FF0000F3FFA1
:105190000000000000000D000000190000002600C3
:1051A0000000320000003F0000004B0000005800EB
:1051B000000065000000710000007E0001008A0010
:1051C000010097000100A3000100B0000100BC0035
:1051D0000100C9000100D6000200E2000200EF0059
:1051E0000200FB000200080102001401030021017B
:1051F00003002E0103003A0103004701040053019C
:105200000400600104006C010400790105008601BE
:105210000500920105009F010600AB010600B801E0
:105220000600C4010700D1010700DD010700EA0103
:105230000800F701080003020900100209001C021F
:10524000090029020A0035020A0042020B004E0240
:105250000B005B020C0068020C0074020D0081025E
:105260000D008D020E009A020E00A6020F00B3027E
:105270000F00C0021000CC021000D9021100E5029C
:105280001100F2021200FE0213000B0313001703B9
:10529000140024031400300315003D0316004A03D4
:1052A000160056031700630318006F0318007C03F1
:1052B000190088031A0095031A00A1031B00AE030E
:1052C0001C00BB031D00C7031D00D4031E00E00328
:1052D0001F00ED032000F903200006042100120442
:1052E00022001F0423002B0424003804240044045B
:1052F0002500510426005E0427006A042800770474
:10530000290083042A0090042B009C042B00A9048C
:105310002C00B5042D00C2042E00CE042F00DB04A7
:105320003000E7043100F4043200000533000D05BD
:1053300034001A05350026053600330537003F05D1
:1053400038004C05390058053A0065053B007105E9
:105350003C007E053D008A053F0097054000A305FF
:105360004100B0054200BC054300C9054400D50515
:105370004500E2054700EE054800FB054900070629
:105380004A0014064B0020064C002D064E0039063C
:105390004F0046065000520651005F0653006B0650
:1053A00054007806550084065600910658009D0664
:1053B0005900AA065A00B6065C00C3065D00CF0677
:1053C0005E00DC066000E8066100F5066200010789
:1053D00064000E0765001A07670027076800330797
:1053E000690040076B004C076C0059076E006507A9
:1053F0006F00720771007E0772008B0774009707B9
:105400007500A4077700B0077800BD077A00C907C8
:105410007B00D6077D00E2077E00EF078000FB07D8
:1054200081000708830014088500200886002D08E5
:1054300088003908890046088B0052088D005F08F3
:105440008E006B0890007808920084089300910801
:1054500095009D089700A9089800B6089A00C20810
:105460009C00CF089E00DB089F00E808A100F4081C
:10547000A3000109A5000D09A6001909A800260925
:10548000AA003209AC003F09AE004B09AF00580931
:10549000B1006409B3007009B5007D09B70089093E
:1054A000B9009609BB00A209BD00AF09BE00BB0947
:1054B000C000C709C200D409C400E009C600ED0954
:1054C000C800F909CA00060ACC00120ACE001E0A5A
:1054D000D0002B0AD200370AD400440AD600500A62
:1054E000D8005C0ADA00690ADC00750ADE00820A6C
:1054F000E0008E0AE2009A0AE400A70AE700B30A75
:10550000E900C00AEB00CC0AED00D80AEF00E50A7A
:10551000F100F10AF300FD0AF6000A0BF800160B81
:10552000FA00230BFC002F0BFE003B0B0001480B85
:105530000301540B0501600B07016D0B0901790B89
:105540000C01850B0E01920B10019E0B1301AB0B8E
:105550001501B70B1701C30B1901D00B1C01DC0B94
:105560001E01E80B2001F50B2301010C25010D0C98
:1055700028011A0C2A01260C2C01320C2F013F0C99
:1055800031014B0C3401570C3601640C3801700C9E
:105590003B017C0C3D01890C4001950C4201A10CA2
:1055A0004501AE0C4701BA0C4A01C60C4C01D30CA4
:1055B0004F01DF0C5101EB0C5401F80C5601040DA6
:1055C0005901100D5B011C0D5E01290D6101350DA6
:1055D0006301410D66014E0D68015A0D6B01660DA8
:1055E0006E01720D70017F0D73018B0D7601970DA9
:1055F0007801A40D7B01B00D7E01BC0D8001C80DAA
:105600008301D50D8601E10D8901ED0D8B01F90DA9
:105610008E01060E9101120E94011E0E96012B0EA4
:105620009901370E9C01430E9F014F0EA2015C0EA3
:10563000A401680EA701740EAA01800EAD018C0EA4
:10564000B001990EB301A50EB601B10EB801BD0EA1
:10565000BB01CA0EBE01D60EC101E20EC401EE0EA0
:10566000C701FB0ECA01070FCD01130FD0011F0F99
:10567000D3012B0FD601380FD901440FDC01500F95
:10568000DF015C0FE201680FE501750FE801810F92
:10569000EB018D0FEE01990FF101A50FF401B20F8F
:1056A000F701BE0FFA01CA0FFD01D60F0102E20F8A
:1056B0000402EE0F0702FB0F0A0207100D0213107F
:1056C00010021F1013022B10170237101A02441079
:1056D0001D02501020025C10230268102702741073
:1056E0002A0280102D028C10300299103402A5106D
:1056F0003702B1103A02BD103E02C9104102D51066
:105700004402E1104702ED104B02FA104E0206115E
:105710005102121155021E1158022A115C02361153
:105720005F02421162024E1166025A11690267114C
:105730006D02731170027F1173028B117702971142
:105740007A02A3117E02AF118102BB118502C7113B
:105750008802D3118C02DF118F02EB119302F71133
:10576000960204129A0210129D021C12A102281223
:10577000A5023412A8024012AC024C12AF02581219
:10578000B3026412B7027012BA027C12BE0288120F
:10579000C1029412C502A012C902AC12CC02B81206
:1057A000D002C412D402D012D802DC12DB02E812FA
:1057B000DF02F412E3020013E6020C13EA021813EC
:1057C000EE022413F2023013F5023C13F9024813DF
:1057D000FD0254130103601305036C1308037813CF
:1057E0000C0384131003901314039C131803A813C1
:1057F0001C03B4132003C0132303CC132703D813B3
:105800002B03E4132F03F0133303FB1337030714A5
:105810003B0313143F031F1443032B144703371494
:105820004B0343144F034F1453035B145703671484
:105830005B0373145F037F1463038B146703961475
:105840006B03A2146F03AE147303BA147703C61468
:105850007B03D2147F03DE148303EA148703F61458
:105860008C03011590030D15940319159803251544
:105870009C033115A0033D15A5034915A903541533
:10588000AD036015B1036C15B5037815BA03841523
:10589000BE039015C2039B15C603A715CA03B31513
:1058A000CF03BF15D303CB15D703D715DC03E21500
:1058B000E003EE15E403FA15E9030616ED031216EC
:1058C000F1031D16F6032916FA033516FE034116D9
:1058D00003044C16070458160B04641610047016C3
:1058E00014047C16190487161D04931622049F16AF
:1058F0002604AB162A04B6162F04C2163304CE169D
:105900003804DA163C04E5164104F1164504FD1688
:105910004A0409174E0414175304201757042C1770
:105920005C0437176104431765044F176A045B175B
:105930006E0466177304721778047E177C04891747
:10594000810495178504A1178A04AC178F04B81732
:105950009304C4179804CF179D04DB17A104E7171D
:10596000A604F217AB04FE17B0040A18B404151805
:10597000B9042118BE042D18C2043818C7044418ED
:10598000CC044F18D1045B18D6046718DA047218D7
:10599000DF047E18E4048918E9049518EE04A118C0
:1059A000F204AC18F704B818FC04C3180105CF18AA
:1059B0000605DB180B05E6181005F2181505FD188D
:1059C0001A0509191E0514192305201928052C1973
:1059D0002D0537193205431937054E193C055A195B
:1059E00041056519460571194B057C195005881943
:1059F000550593195A059F195F05AA196405B6192B
:105A00006905C1196E05CD197305D8197805E41912
:105A10007E05EF198305FB198805061A8D05121AF4
:105A200092051D1A9705291A9C05341AA105401ADA
:105A3000A7054B1AAC05571AB105621AB6056E1ABE
:105A4000BB05791AC105841AC605901ACB059B1AA5
:105A5000D005A71AD505B21ADB05BE1AE005C91A8A
:105A6000E505D41AEA05E01AF005EB1AF505F71A70
:105A7000FA05021B00060D1B0506191B0A06241B4E
:105A80001006301B15063B1B1A06461B2006521B30
:105A900025065D1B2A06681B3006741B35067F1B16
:105AA0003B068A1B4006961B4506A11B4B06AC1BFA
:105AB0005006B81B5606C31B5B06CE1B6106DA1BDD
:105AC0006606E51B6C06F01B7106FC1B7706071CBF
:105AD0007C06121C82061E1C8706291C8D06341C9F
