:020000041A00E0
:10000000008000103504001A7901001A7B01001AE3
:100010007D01001A7F01001A8101001A5A74FF53F2
:100020000000000000000000000000008301001A32
:100030008501001A000000008701001A4915001A06
:10004000BB01001ABB01001ABB01001A000000002E
:10005000BB01001ABB01001ABB01001ABB01001A48
:100060005519001ABB01001ABB01001ABB01001A86
:10007000BB01001ABB01001ABB01001ABB01001A28
:10008000BB01001ABB01001ABB01001ABB01001A18
:10009000BB01001ABB01001ABB01001ABB01001A08
:1000A000BB01001ABB01001ABB01001ABB01001AF8
:1000B000BB01001ABB01001ABB01001ABB01001AE8
:1000C000BB01001ABB01001ABB01001ABB01001AD8
:1000D000BB01001ABB01001ABB01001ABB01001AC8
:1000E000BB01001ABB01001ABB01001ABB01001AB8
:1000F00000000000BB01001ABB01001ABB01001A7E
:1001000000000000BB01001ABB01001ABB01001A6D
:10011000BB01001AA028001A0000001048000000CF
:10012000A028001A0000081000000000A028001AF3
:100130000000002000000000A028001A008000201D
:1001400000000000A028001A00C0002000000000ED
:1001500048000010300400000000081000000000FB
:1001600000000020000000000080002000000000CF
:1001700000C0002000000000FEE7FEE7FEE7FEE70B
:10018000FEE7FEE7FEE7FEE7FEE7002393420AD222
:1001900010B404680C600433043004319342F8D383
:1001A0005DF8044B70477047002303E000220260B3
:1001B000043304308B42F9D37047FEE7FFFFFFFFA3
:1001C000FFFFFFFFFFFFFFFFFFFFFFFFFFFFFFFF3F
:1001D000FFFFFFFFFFFFFFFFFFFFFFFFFFFFFFFF2F
:1001E000FFFFFFFFFFFFFFFFFFFFFFFFFFFFFFFF1F
:1001F000FFFFFFFFFFFFFFFFFFFFFFFFFFFFFFFF0F
:10020000FFFFFFFFFFFFFFFFFFFFFFFFFFFFFFFFFE
:10021000FFFFFFFFFFFFFFFFFFFFFFFFFFFFFFFFEE
:10022000FFFFFFFFFFFFFFFFFFFFFFFFFFFFFFFFDE
:10023000FFFFFFFFFFFFFFFFFFFFFFFFFFFFFFFFCE
:10024000FFFFFFFFFFFFFFFFFFFFFFFFFFFFFFFFBE
:10025000FFFFFFFFFFFFFFFFFFFFFFFFFFFFFFFFAE
:10026000FFFFFFFFFFFFFFFFFFFFFFFFFFFFFFFF9E
:10027000FFFFFFFFFFFFFFFFFFFFFFFFFFFFFFFF8E
:10028000FFFFFFFFFFFFFFFFFFFFFFFFFFFFFFFF7E
:10029000FFFFFFFFFFFFFFFFFFFFFFFFFFFFFFFF6E
:1002A000FFFFFFFFFFFFFFFFFFFFFFFFFFFFFFFF5E
:1002B000FFFFFFFFFFFFFFFFFFFFFFFFFFFFFFFF4E
:1002C000FFFFFFFFFFFFFFFFFFFFFFFFFFFFFFFF3E
:1002D000FFFFFFFFFFFFFFFFFFFFFFFFFFFFFFFF2E
:1002E000FFFFFFFFFFFFFFFFFFFFFFFFFFFFFFFF1E
:1002F000FFFFFFFFFFFFFFFFFFFFFFFFFFFFFFFF0E
:1003000008B501F035FB4FF4E121032001F078F846
:10031000002001F033F9002001F02CF8384801F0FA
:100320001BF809E0374A136801331360364B1A682B
:1003300044F6AF739A42F9D90025334B1D60334C14
:100340002188334E022206EB4101032001F0A3F87D
:10035000284601F06FF92388A0F5007026F81300F5
:100360002C4B1A8842F2107303FB02F1254B1868DC
:10037000B0FBF1F301FB130307EE903AF8EE677A56
:10038000DFED256A87EEA67A244B83ED007A244BB5
:100390001B8800EE103AB8EEC00A20EE070A07EEFE
:1003A000902AF8EEE77AC7EE276A20EE260A30EEAA
:1003B000000ADFED1C7A20EE270A01F013FBDFEDC7
:1003C0001A7A20EE270A30EE270ABCEEC00A10EE99
:1003D000103A99B2284600F0EFFF238801339BB210
:1003E0002380B3F5007F9DD123461D8006220F494F
:1003F000032001F050F8292001F0A1FA92E700BF94
:1004000000CB280C50000010041000E04800001041
:10041000700000100200001000401C464C0000104C
:1004200000000010DB0F494000000044D81D001AF6
:100430007047FFFF10B572B6194B1A4A1A600433A1
:10044000194A1A60002305E0184A4FF0FF3142F8BC
:1004500023100133072BF7D962B6154B07E003F1E0
:100460000C049A6859681868FFF78FFE2346114AF2
:100470009342F4D306E01C46596854F8080BFFF782
:1004800093FE23460C4A9342F5D300F049FF01F056
:1004900077FCFFF7CDFFFFF733FF30BFFDE700BF6D
:1004A000003105400010DF10FFF7DF0180E200E0BF
:1004B0001401001A5001001A7801001A70477047A1
:1004C0000022052A19D870B40C4911F8125001EB1A
:1004D00042014C780A4B05F5006653F826100120BE
:1004E000A040014343F8261003EB451300211955A2
:1004F0000132052AE8D970BC70477047EC1D001A1C
:1005000000400F400023032B16D830B40B4911F8DC
:10051000132001EB43014D78094C02F5006254F8B9
:1005200022100120A84021EA000144F822100133E2
:10053000032BEBD930BC7047704700BFE41D001A95
:1005400000400F400023082B16D830B40B4911F897
:10055000132001EB43014D78094C02F5006254F879
:1005600022100120A84021EA000144F822100133A2
:10057000082BEBD930BC7047704700BFF81D001A3C
:1005800000400F4010B582B0084C6946204600F08C
:10059000E9F9074A6946204600F04EFA002269460A
:1005A000204600F062FA02B010BD00BF00300E40DD
:1005B000801A060010B50B4C204600F057FE636809
:1005C00023F004036360236823F0FF0343F0070371
:1005D00023600549204600F02AFE636843F00203C9
:1005E000636010BD00500C40A086010008B50020DB
:1005F00000F068FE044B40F60802C3F8842C03495F
:10060000002000F071FE08BD0060084040420F006D
:1006100010B5074C204600F0B1F84FF4E131204608
:1006200000F0F6F80323E3600123E36510BD00BF8B
:1006300000100C4008B5FFF7EBFF094800F0D6FDAD
:10064000FFF780FFFFF79EFFFFF7B4FFFFF7CEFF36
:10065000FFF736FFFFF756FF00F032FA08BD00BF84
:1006600000400F4008B5FFF7D3FF08BD00231C2B47
:1006700012D810B4094A02EB830112F823404A78D9
:10068000488802EB4412064941F8220001331C2B32
:10069000F0D95DF8044B7047704700BF141E001A74
:1006A0000060084010B5174AD2F8203123F4704397
:1006B00043F41043C2F82031D2F8243123F47043BC
:1006C00043F41043C2F8243101220F49062000F000
:1006D000E3FC00244CB10B4B5A6822F00C025A6028
:1006E0005A6842F003025A6010BD084800EB8401CA
:1006F00001238A78497810F8240000F00FFC0134B7
:10070000E8E700BF0030044000CB280C101E001AA0
:1007100008B5FFF7ABFFFFF7C5FF08BD08B502201E
:1007200000F07AFC08BD036803F48033890189B2C4
:10073000194301607047036823F480330360012983
:1007400000D07047036843F480330360F9E7FFFF8C
:10075000094B984209D003F58053984207D0A3F57E
:100760008023984205D00020704702207047032064
:1007700070470120704700BF00100C4030B583B0B7
:100780000446FFF7E5FF01231A4619460E4D35F8DA
:10079000100000F009FC0723A3600023E3656360F9
:1007A000E3602362E36463652365084B9C4206D0E3
:1007B0000323E3601023A362019B03B030BD002339
:1007C0002361A3690193F3E7901E001A00200840FB
:1007D00038B505460C46FFF7BBFF0C4B33F810004D
:1007E00000F034FC2301B0FBF3F3D9B2EA6842F025
:1007F0008002EA602960C3F307226A60EA6822F097
:100800008002EA60B0FBF3F0000938BD881E001AD0
:100810002DE9F04F83B083468846FFF799FF354BAB
:1008200033F8100000F012FC06464FF0FF370124A9
:1008300000230193A24699462AE042424B1C17E04E
:100840000AB317460195A24699460135AC421ED916
:1008500033093007A4FB000104FB0311621908FBF4
:1008600002F2002301F00CF902460B460028E4DBFB
:100870009742EAD3002BE8D0190CE6D1022BDFD83F
:10088000002DDDD0E1E717460195A24699460134D7
:100890001FB10F2C01D80025D8E7B9F1000F24D0E3
:1008A000DBF80C3043F08003CBF80C305FFA89F3AF
:1008B000CBF80030C9F30723CBF80430DBF80C3059
:1008C00023F08003CBF80C304FEA0A13DBB2019916
:1008D00001F00F021343CBF8283033090AFB03F36E
:1008E0008A4409FB0AF9B3FBF9F9484603B0BDE8AD
:1008F000F08F00BF881E001A034B984201D00320DE
:1009000070470420704700BF00400E4070B50D4690
:1009100014461E46FFF7F0FF00F098FB65B904EBA4
:10092000840304EB430404EB40006400B0FBF4F0E8
:10093000C0B20138C0B270BD04FB06F4F3E703682F
:1009400023F0E06343EA016101607047043150F82D
:100950002130002B01DB00207047C3F38913138083
:100960000120704738B505460C46FFF7C5FF012347
:100970001A46194600F018FB0021E960084A226077
:10098000217161710B232846FFF7C0FF000240F47C
:1009900000132079400400F460201843286038BD1B
:1009A000801A060008B54FF48072C260002202600F
:1009B000FFF7A2FF00F030FB08BD08B5FFF7C6FF48
:1009C00008BD012A0AD01AB1022A0FD000207047B0
:1009D000006BC84000F00100C0B270470831C9B2D6
:1009E000006BC84000F00100C0B27047036B1B0CE5
:1009F00014BF012000207047012A07D0C3680122DC
:100A000002FA01F123EA0101C1607047C36802FAEA
:100A100001F11943C160704708B5012904D932B901
:100A2000036823F000630360FFF789FF08BD0368D4
:100A300043F000630360F7E770B505460E460468AF
:100A400024F46F2424F470640A600B79C3F10B035F
:100A5000DBB24979FFF75AFF44EA002430794004B9
:100A600000F460202043286070BD08B50A710A6850
:100A7000FFF7E2FF08BD012A0BD0036823F0E06313
:100A800003600368012202FA01F123EA0101016017
:100A90007047036802FA01F119430160704738B5E5
:100AA00004460D460021FFF74AFF25B1236843F4B1
:100AB0008033236038BD236823F480332360F9E753
:100AC00008B5692000F0C2FA014B186008BD00BFEC
:100AD00070040010F0B40B6813F0800F02D023F004
:100AE00040030B60074601253BE04B6903FB02F323
:100AF000B3FBF5F314E01C4620E0CCF1000C20E041
:100B00000132B2F5807F26DC0C6814F0400FECD087
:100B1000731C02FA03FC4B6903FB0CF3B3FBF5F304
:100B2000DFF84CC06345EBD9DFF848C0634512D805
:100B300014F0800FDFD1741C23FA04F4B0EB040C22
:100B4000DBD46745DCD98D60771CCF600A618C618E
:100B5000CB616746D4E70136032E01DC0122D0E7E2
:100B60000135042D01DC0026F6E7F0BC704700BF1C
:100B7000FF5E4C0900D01213F0B599B005460C4643
:100B80005C22002101A801F01FF980230093636912
:100B9000059323798DF8043069462846FFF79AFFBC
:100BA000069BAB4227D0EB1A2ED41E46109B23F097
:100BB000400310936369159323798DF8443010A98D
:100BC0002846FFF787FF169BAB421FD0EB1A25D4B0
:100BD0001F462B4B9D4223D90E9BED1A33D4AE42B8
:100BE0003BDCBE4231DC6D460FCD0FC495E80F00F3
:100BF00084E80F0006E06D460FCD0FC495E80F00A6
:100C000084E80F0019B0F0BD5B42CEE710AD0FCD08
:100C10000FC495E80F0084E80F00F3E75B42D7E7C5
:100C20004023089363690D9308A92846FFF752FFF4
:100C30000E9BAB42D0D108AD0FCD0FC495E80F008D
:100C400084E80F00DEE76D42C9E710AD0FCD0FC499
:100C500095E80F0084E80F00D4E7AF4207DB08AD4A
:100C60000FCD0FC495E80F0084E80F00CAE710AD60
:100C70000FCD0FC495E80F0084E80F00C2E700BF56
:100C800080778E0630B4054600231C2000E0013337
:100C90001C2818D103EB430251000C4A0A44147972
:100CA000844210D003EB43014A0008498A5AAA4201
:100CB000EDD803EB43025100044A0A445288AA4289
:100CC000E5D32046E4E730BC704700BFA41E001AFD
:100CD00082B04FF47A7301930D4A936923F00201B5
:100CE00092698A4201D00A4A916123F00303094ABA
:100CF0001168094A914201D943F00403044A9361FF
:100D0000019B5A1E0192002BFAD102B0704700BF1E
:100D1000000005400C1E001AFF2C31011230054B5B
:100D200053F8200010F0010F02D1C0F304607047A7
:100D3000112070470000054000F11202034B53F8E8
:100D40002220034B185C00EA920070470000054027
:100D50009C1E001A08B510280AD8DFE800F0420BE4
:100D60000D161F092225282B09092E32363A3E007E
:100D7000002038E01E4836E01E4BD3F82C3103F03B
:100D80000703042B30D100202DE01A4BD3F82C316F
:100D900003F00703042B29D0174824E0174B1868E9
:100DA00021E0174B18681EE0164B18681BE0154B26
:100DB000586818E000F06AF815E0002100F09CF88F
:100DC00011E0012100F098F80DE0022100F094F804
:100DD00009E0032100F090F805E0042100F08CF810
:100DE00001E04FF4004008BD0348FCE70648FAE77D
:100DF000001BB7000030044040787D01E01D001A60
:100E00000C1E001A5400001080F0FA0238B5054696
:100E10000C460879FFF79EFF6061194B2B44194A75
:100E2000934221D818B3802323600023A360E3609A
:100E3000B5FBF0F32361144A954203D903FB00F09C
:100E4000A84207D021462846FFF796FEA3688BB13B
:100E5000013BA360236983B1E2680AB1013AE26011
:100E6000013B2361002038BD4FF0FF30FBE74FF01E
:100E7000FF30F8E74FF0FF30F5E74FF0FF30F2E7D3
:100E8000103A6BFF1005940BFF5E4C0930B583B030
:100E9000174D6C6CC4F30360FFF75CFF154B1B68C8
:100EA00001932B6C13F0010F1FD0C4F30743C4F35D
:100EB0000132C4F30121C4F38015013301320DF175
:100EC000080C614411F8041C14F0800F08D13DB9DE
:100ED0004900B3FBF1F3B0FBF2F000FB03F005E0D7
:100EE000B0FBF2F003FB00F000E0002003B030BDE7
:100EF00000000540981E001A38B50C460846FFF75A
:100F00000DFF05462046FFF717FF04462846FFF76A
:100F100021FF0134B0FBF4F038BDFFFF30B400F125
:100F20001604A40004F1804404F5A02464681B287E
:100F300013D811291AD00E4D25400AB145F4006589
:100F40000BB145F0010545EA01651630800000F15E
:100F5000804000F5A020456008E044F00104163010
:100F6000800000F1804000F5A020446030BC704754
:100F7000FEF7FFE01B280CD81630800000F18040FF
:100F800000F5A020406810F0010F04D1C0F3046008
:100F90007047112070471120704708B5FFF7EAFF2E
:100FA000FFF7D8FE08BDFFFF69B901210AB141F082
:100FB0000401022B09D0B0F5A17F09D22030074BE4
:100FC00043F8301070470321F0E741F02001F2E7C9
:100FD000A0F59170024B43F83010704700100540A7
:100FE00000200540B0F5A17F08D2094A203052F810
:100FF000303043F0010342F830307047054AA0F525
:10100000917052F8303043F0010342F830307047AD
:101010000010054000200540B0F5A17F08D2094A24
:10102000203052F8303023F0010342F8303070475E
:10103000054AA0F5917052F8303023F0010342F8D0
:1010400030307047001005400020054010B5B0F565
:10105000A17F09D3A0F591730D4A52F8334014F0E3
:10106000010F07D1002010BD00F12003094A52F8FA
:101070003340F4E7FFF706FEFFF78FFF14F0E00FB1
:1010800003D10123B0FBF3F0EDE70223FAE700BF41
:10109000002005400010054070B58AB005460E4698
:1010A00014464CF250330993062818D0002301222D
:1010B00029460420FFF732FF494A536C43F00103ED
:1010C00053648DF8085001A93046FFF79FFE454B49
:1010D0009E4216D9019B13F0400F03D0FEE7FFF7A5
:1010E000F7FDE3E713F0800F05D023F080030193B1
:1010F0000025012607E0049B013304930125002607
:1011000001E000252E469DF80820019B43EA02637A
:10111000059A43EA0243039A43EA0233049A43EAF4
:10112000022343F400632E4A53642D4B1B6C13F0CF
:10113000010FFAD00023012209210420FFF7EEFE5F
:10114000FEB14CF250330993099B5A1E0992002BB1
:10115000FAD1019B43F0800301939DF8082043EAF4
:101160000263059A43EA0243039A43EA0233049A6C
:1011700043EA022343F40063194A53646CB3002426
:1011800029E0002DFAD04CF250330993099B5A1EE6
:101190000992002BFAD1049B5A1E04929DF8081064
:1011A000019B43EA0163059943EA0143039943EA3A
:1011B000013343EA022343F40063094A5364DDE741
:1011C000094800EB8401CB788A78497810F824002C
:1011D000FFF7A4FE0134112CF2D90AB070BD00BF94
:1011E0000000054080778E06101F001A7047FFFF31
:1011F000034B984201D083207047A520704700BF61
:1012000000500C40044B984202D040F2022070473C
:101210004FF4F170704700BF00500C40036823F496
:101220007F43090289B2194301600261704770B5BA
:1012300006460D46FFF7E6FFFFF708FF02224FF0D4
:10124000FF33002100E02146AB420BD94C1C02FBCE
:1012500004F3B0FBF3F39D42F6D2FF2CF3D9023234
:101260000021F1E73046FFF7D9FF70BD10B5044605
:10127000FFF7BEFFFFF7B6FE2046FFF7C3FFFFF7FD
:10128000B1FE636823F004036360236823F0FF0367
:1012900043F00703236002492046FFF7C8FF10BD53
:1012A000A0860100012900D07047C0EBC000820079
:1012B000034B13441A69137DDBB2042BFBD0F3E715
:1012C0000400001070B50546064EC400221A9300B3
:1012D00033449888FFF786FE641BA300F3586C2202
:1012E0009A6170BD040000102DE9F0410C460B4ED0
:1012F000C5002B1A4FEA830806EB08039888FFF70E
:10130000A5FEB0FBF4F056F8083042081A6156F812
:1013100008301A69801A5861BDE8F0810400001095
:1013200008B50B4A0B4B9A6003F50C731B6903F469
:101330007F63202B04D0FFF7EBF9FFF77BF908BDA3
:10134000044AD2F8883043F47003C2F88830F2E7D8
:101350000000001A00ED00E0044B1860044A136816
:1013600043F0010313600120704700BF3C000010F0
:10137000001000E010B510B1012816D010BD0123F7
:101380001A4619460220FFF70FFE0A4C012120469B
:10139000FFF7D1F9636823F00F0343F0080363609C
:1013A00000212046FFF7BFF9E8E70248FFF7B6F94A
:1013B000E4E700BF00100E4048B908B5B1F5806FF2
:1013C00001D340F2FF310248FFF7ADF908BD704785
:1013D00000100E4000EB40008300034AD3585869C8
:1013E00000F02000704700BF581F001A00EB4000BB
:1013F0008300024AD3581960704700BF581F001A73
:101400002DE9F84380468946194C45002A18930077
:10141000E618E7583846FFF7B1F949463846FFF76E
:10142000D7F90723BB603B680123FB6530797379EB
:10143000B27942F018020F4903EB401341F8232020
:10144000F079337A727A42F0D00203EB401341F81C
:101450002320B8F1010F01D0BDE8F883064AD36C10
:1014600043F03003D3641A22C1F80823F4E700BF25
:10147000581F001A006008400010084038B50446A4
:101480000D462046FFF7A6FF0028FAD02946204641
:10149000FFF7ACFF38BDF8B507460E4615460024E9
:1014A00004E0315D3846FFF7E9FF0134AC42F8D380
:1014B000F8BDFFFF18B9044B00221A607047024BB9
:1014C00007221A60704700BF10E000E038B550EA0C
:1014D00001032AD010F1FF3241F1FF33002B08BF86
:1014E000322A27D2144BC3E90001144B1B68A3FB1B
:1014F000004503FB01554FF47A720023204629462C
:1015000000F0BEFA0138B0F1807F09D20C4B586070
:101510000C4AE02182F8231000229A6007221A6008
:101520000120FFF7C7FF012038BD0020FFF7C2FFF1
:101530000020F9E70020F7E74000001070040010D9
:1015400010E000E000ED00E02DE900480849D1E995
:10155000002312F1010B43F1000CC1E900BC054B63
:101560001B6813B1044A10689847BDE8008800BFA3
:1015700060000010680000105C00001030B583B0FF
:1015800018B101284AD003B030BD264B6D4693E810
:10159000030085E80300244C29462046FFF7E2F9C2
:1015A00000212046FFF77BFA204A29462046FFF714
:1015B00043FA002201212046FFF75DFA00220121B3
:1015C0002046FFF719FA002202212046FFF753FABE
:1015D000002202212046FFF70FFA002203212046B5
:1015E000FFF749FA002203212046FFF705FA0022FF
:1015F00004212046FFF73FFA002204212046FFF78E
:10160000FBF90B4AD2F8883C43F01003C2F8883C3F
:10161000002205212046FFF7EFF9B4E70248FFF763
:10162000C1F9B0E7A01F001A00300E40400D0300C2
:101630000060084070B582B00130C4B20026ADF839
:101640000660114D012221462846FFF714FA324662
:1016500001212846FFF7E0F9002221460A48FFF75A
:10166000B0F90128F8D1084D0DF1060221462846AF
:10167000FFF7A3F9002221462846FFF7FCF9BDF841
:10168000060002B070BD00BF00300E4030B40B4DFC
:1016900000EB80002C182856087094F90110117086
:1016A00094F902201A7094F90320029B1A7094F99D
:1016B0000420039B1A7030BC704700BFA81F001A9B
:1016C00010F1020F00F0C780B0F1FF3F00F0C580BD
:1016D00070B584B00C4600238DF80F308DF80E30B5
:1016E0008DF80D308DF80C308DF80B300DF10B03AB
:1016F000019303AB00930DF10D030DF10E020DF1FB
:101700000F01FFF7C3FF052C00F2A980DFE804F00A
:101710000981274563035348FFF768FD012004B0A2
:1017200070BD9DF80F109DF80E309DF80D2042F011
:10173000D00203EB41134C4941F823209DF80C30B3
:101740009DF90B20012000FA02F1464C03F50063DD
:1017500054F8232022EA010244F82320DFE79DF811
:101760000F109DF80E309DF80D2042F0C00203EBE3
:1017700041133D4941F823209DF80C309DF90B2081
:10178000012000FA02F1374C03F5006354F82320DE
:1017900022EA010244F82320C1E79DF80F109DF8CA
:1017A0000E309DF80D2042F0D80203EB41132E4974
:1017B00041F823209DF80C309DF90B20012000FA00
:1017C00002F1284C03F5006354F8232022EA0102B9
:1017D00044F82320A3E79DF80F109DF80E309DF8E4
:1017E0000D2042F0C80203EB41131F4941F82320AA
:1017F0009DF80C309DF90B20012000FA02F1194CE4
:1018000003F5006354F8232022EA010244F8232060
:1018100085E79DF80F109DF80E309DF80D2042F0E1
:10182000D00203EB4113104941F823209DF80C40EE
:101830009DF90B20012000FA02F10A4B04F5006526
:1018400053F82560314343F82510D2B203EB44131B
:101850000021995463E70020704700207047002062
:101860005DE700BF00400F400060084010F1020F2C
:101870002DD0B0F1FF3F2CD010B584B00C46002322
:101880008DF80F308DF80E308DF80D308DF80C304E
:101890008DF80B300DF10B03019303AB00930DF1A9
:1018A0000D030DF10E020DF10F01FFF7EFFE9DF894
:1018B0000C309DF80B20211C18BF01215B0103F1A6
:1018C000402303F570239954012004B010BD00207B
:1018D00070470020704710F1020F2CD0B0F1FF3F8D
:1018E0002BD000B585B000238DF80F308DF80E3069
:1018F0008DF80D308DF80C308DF80B300DF10B0399
:10190000019303AB00930DF10D030DF10E020DF1E8
:101910000F01FFF7BBFE9DF90C309DF80B205B011A
:1019200003F1402303F57023985C003018BF0120B9
:1019300005B05DF804FB012070470020704710B52A
:101940000446FFF7C8FFB0FA80F149092046FFF7C7
:101950008DFF10BD08B5044B1B681B68DB68034A8C
:101960001068984708BD00BF740400106C00001098
:1019700008B5FFF7A5F81A4B1868FFF7EDFC012032
:101980000021FFF7A3FD05210020FFF799FE0021AC
:101990002420FFF795FE00212520FFF791FE00216E
:1019A0002620FFF78DFE00212720FFF789FE012169
:1019B0002820FFF785FE01212920FFF781FE012164
:1019C0002A20FFF77DFE01212B20FFF779FE012160
:1019D0002C20FFF775FE01212D20FFF771FE08BDB9
:1019E00070040010B5EEC00AF1EE10FA2CD4DFED51
:1019F000207A20EE270AFDEEC07A32D4F8EEE77A9C
:101A0000DFED1C6A1C4A30EE670AB7EE007A20EE62
:101A1000260AFCEEC07A17EE903AC3F3080307EEED
:101A2000903AF8EE677A02EB830170EE677AD1EDB7
:101A3000016A91ED000A37EE677A67EEA67A27EE23
:101A4000000A30EE270A7047DFED0C7AB4EEE70AA1
:101A5000F1EE10FA0BDADFED067A20EE270AFDEE42
:101A6000C07A17EE903A013B07EE903AC6E770470E
:101A700083F9223E000000449020001ACD024CB4AD
:101A800053B94AB9002908BF00281CBF4FF0FF31E5
:101A90004FF0FF3000F072B9ADF1080C6DE904CEE3
:101AA00000F006F8DDF804E0DDE9022304B0704739
:101AB0002DE9F047089E04468846002B4BD18A4208
:101AC000154667D9B2FA82F24AB1C2F1200701FA8B
:101AD00002F320FA07F7954047EA030894404FEADB
:101AE000154E230CB8FBFEF71FFA85FC0EFB17887A
:101AF00043EA084307FB0CF1994209D9EB1807F1B7
:101B0000FF3080F01B81994240F21881023F2B4444
:101B10005B1AA4B2B3FBFEF00EFB103344EA03449D
:101B200000FB0CFCA44509D92C1900F1FF3380F00F
:101B30000781A44540F2048102382C4440EA074062
:101B4000A4EB0C0400271EB1D4400023C6E90043D7
:101B50003946BDE8F0878B4209D9002E00F0EB80B2
:101B60000027C6E9000138463946BDE8F087B3FAD8
:101B700083F7002F47D18B4202D3824200F2FA80D2
:101B8000841A61EB030301209846002EE0D0C6E9D9
:101B90000048DDE702B9FFDEB2FA82F2002A40F027
:101BA0008F80491B4FEA154E1FFA85F80127B1FBBC
:101BB000FEFC230C0EFB1C1143EA014308FB0CF155
:101BC000994207D9EB180CF1FF3002D2994200F28A
:101BD000CD808446591AA3B2B1FBFEF00EFB10145F
:101BE00043EA044408FB00F8A04507D92C1900F18A
:101BF000FF3302D2A04500F2B6801846A4EB0804D9
:101C000040EA0C409FE7C7F1200CBB4022FA0CFED3
:101C10004EEA030E01FA07F420FA0CF521FA0CF350
:101C20004FEA1E482543B3FBF8F92C0C08FB193387
:101C30001FFA8EFA44EA034309FB0AF49C4202FAB3
:101C400007F200FA07F10BD91EEB030309F1FF308D
:101C500080F087809C4240F28480A9F1020973449D
:101C60001B1BADB2B3FBF8F008FB103345EA03448D
:101C700000FB0AFAA24508D91EEB040400F1FF3369
:101C80006BD2A24569D90238744440EA0940A0FBEE
:101C90000289A4EB0A044C45C2464B4654D351D0AA
:101CA000002E69D0B1EB0A0564EB030404FA0CFCC6
:101CB000FD40FC404CEA0505C6E90054002747E713
:101CC000C2F1200320FA03F7954001FA02F021FA4D
:101CD00003F34FEA154E3843010CB3FBFEF71FFA2E
:101CE00085F80EFB173341EA034107FB08F38B42EB
:101CF00004FA02F407D9691807F1FF3C2FD28B428E
:101D00002DD9023F2944CB1A81B2B3FBFEF00EFB62
:101D1000103341EA034100FB08F38B4207D96918ED
:101D200000F1FF3C17D28B4215D902382944C91A59
:101D300040EA07473BE73746304609E70746E7E60C
:101D40001846FBE64145ABD2B8EB020A69EB0E023E
:101D500001381346A4E76046E9E7184695E7674669
:101D6000D1E781467CE702382C4447E7ACF1020C0E
:101D70002B442FE7384608E73746E9E6704700BFAF
:101D800070B50D4E0D4CA41BA4100025A54209D121
:101D90000B4E0C4CFEF793FBA41BA4100025A54290
:101DA00005D170BD56F8253098470135EEE756F855
:101DB000253098470135F2E79428001A9428001A34
:101DC0009428001A9828001A02440346934200D12E
:101DD000704703F8011BF9E768656164657200FFED
:101DE00000000000000400080009010905000501C9
:101DF0000502000E010B010C030003030304050F91
:101E000005100305030603070208FFFF001BB700C8
:101E1000010F0101020044000201440002024400DB
:101E2000020A4000020B4000020C4000010050007A
:101E3000010150000102500001065000060150004F
:101E4000060450000605500006075400060854001A
:101E500006095000060A5000060B5000060C500000
:101E60000F04F0000103D5000104D500070116009E
:101E700007025600020352000204520009055200F4
:101E80000906570006025700C201A2018201620141
:101E900081008200A100A20001020408030F0F0FBD
:101EA000FF000000000005000A00200024000900D7
:101EB0004000400005006000A6000400C000C30010
:101EC0000200E000E0000100000100010300200129
:101ED00020010600400140010C00420142011900AE
:101EE000620162011300820182011200A201A201BB
:101EF0001100C201C2011000E201E2010F00020262
:101F000002020E00220222020D00230223021C0004
:101F100000010100090901000A090100010701018E
:101F200002090100060901000C0901010D09010067
:101F30000E0901000F09010010090100110901003B
:101F40001209010013090100141101001911010007
:101F50001A1101001B1101000010084006040206BE
:101F600005021800001008400905070906071800B7
:101F700000200840000000000000190000100C4084
:101F80000701060702061A0000100C40010F0101AC
:101F900010011A0000200C400203020204021B0080
:101FA000801A06000A000000040100020107050073
:101FB000030D0105000108040200020204030002EF
:101FC000030400000200070400030C0302040509D7
:101FD00003010405080203040503020404050406C2
:101FE0000C000208060B000307060900030506079C
:101FF00004050F06040003030404000204040500A2
:1020000002050406000206040804050C040A04057F
:102010000E010300000A011400000F011200000D60
:10202000011100000C0110000003070700030F005E
:10203000010000010000000000060A000306060877
:10204000040510060500030406010003000409044A
:10205000050D010400000B010F000002010000004B
:102060000401010000080102000009010600010945
:102070000200040500020104050102020405020237
:102080000A00000E020B00010B020C00010CFFFF06
:1020900000000000920E493CB10AC93C2BC3163D1A
:1020A0002EFB483D752B7B3D04A9963D80B6AF3D88
:1020B00036BDC83D2FBCE13D73B2FA3D87CF093E26
:1020C0008340163EB5AB223EA2102F3ECF6E3B3E64
:1020D000C2C5473E0115543E135C603E7F9A6C3E7C
:1020E000CCCF783EC07D823E938E883E229A8E3E33
:1020F00032A0943E86A09A3EE59AA03E128FA63E5C
:10210000D47CAC3EEF63B23E2A44B83E491DBE3E8D
:1021100015EFC33E53B9C93ECA7BCF3E4136D53ECB
:1021200080E8DA3E4F92E03E7533E63EBBCBEB3EB5
:10213000EA5AF13ECBE0F63E275DFC3EE4E7003F85
:102140003D9C033F824B063F9BF5083F6B9A0B3F3C
:10215000DA390E3FCDD3103F2A68133FD9F6153F29
:10216000C07F183FC6021B3FD17F1D3FCBF61F3FEC
:102170009967223F25D2243F5636273F1594293FA1
:102180004AEB2B3FDE3B2E3FBB85303FC9C8323F79
:10219000F304353F233A373F4268393F3B8F3B3F9B
:1021A000F9AE3D3F67C73F3F70D8413F01E2433F33
:1021B00003E4453F65DE473F12D1493FF8BB4B3F43
:1021C000029F4D3F207A4F3F3D4D513F4918533FAD
:1021D00031DB543FE595563F5348583F6AF2593F2B
:1021E0001A945B3F532D5D3F05BE5E3F2146603F25
:1021F00097C5613F5A3C633F59AA643F880F663FC9
:10220000D86B673F3CBF683FA7096A3F0C4B6B3FE9
:102210005E836C3F93B26D3F9ED86E3F73F56F3F08
:102220000809713F5213723F4714733FDD0B743F2F
:102230000BFA743FC6DE753F07BA763FC58B773F12
:10224000F853783F9812793F9DC7793F02737A3FE0
:10225000BE147B3FCDAC7B3F283B7C3FC9BF7C3F5E
:10226000AC3A7D3FCCAB7D3F23137E3FB0707E3FC9
:102270006DC47E3F580E7F3F6D4E7F3FAB847F3FE6
:102280000FB17F3F97D37F3F43EC7F3F11FB7F3FF1
:102290000000803F11FB7F3F43EC7F3F97D37F3FA0
:1022A0000FB17F3FAB847F3F6D4E7F3F580E7F3F26
:1022B0006DC47E3FB0707E3F23137E3FCCAB7D3F2D
:1022C000AC3A7D3FC9BF7C3F283B7C3FCDAC7B3FD8
:1022D000BE147B3F02737A3F9DC7793F9812793FC6
:1022E000F853783FC58B773F07BA763FC6DE753F18
:1022F0000BFA743FDD0B743F4714733F5213723F68
:102300000809713F73F56F3F9ED86E3F93B26D3FE2
:102310005E836C3F0C4B6B3FA7096A3F3CBF683F35
:10232000D86B673F880F663F59AA643F5A3C633FAA
:1023300097C5613F2146603F05BE5E3F532D5D3F1F
:102340001A945B3F6AF2593F5348583FE595563F10
:1023500031DB543F4918533F3D4D513F207A4F3FA9
:10236000029F4D3FF8BB4B3F12D1493F65DE473FCF
:1023700003E4453F01E2433F70D8413F67C73F3F19
:10238000F9AE3D3F3B8F3B3F4268393F233A373FF1
:10239000F304353FC9C8323FBB85303FDE3B2E3F9B
:1023A0004AEB2B3F1594293F5636273F25D2243F31
:1023B0009967223FCBF61F3FD17F1D3FC6021B3FCF
:1023C000C07F183FD9F6153F2A68133FCDD3103F81
:1023D000DA390E3F6B9A0B3F9BF5083F824B063F65
:1023E0003D9C033FE4E7003F275DFC3ECBE0F63E2B
:1023F000EA5AF13EBBCBEB3E7533E63E4F92E03EF0
:1024000080E8DA3E4136D53ECA7BCF3E53B9C93E5D
:1024100015EFC33E491DBE3E2A44B83EEF63B23EAF
:10242000D47CAC3E128FA63EE59AA03E86A09A3E92
:1024300032A0943E229A8E3E938E883EC07D823E8C
:10244000CCCF783E7F9A6C3E135C603E0115543EC3
:10245000C2C5473ECF6E3B3EA2102F3EB5AB223EDB
:102460008340163E87CF093E73B2FA3D2FBCE13D53
:1024700036BDC83D80B6AF3D04A9963D752B7B3D6A
:102480002EFB483D2BC3163DB10AC93C920E493C78
:1024900000000000920E49BCB10AC9BC2BC316BD96
:1024A0002EFB48BD752B7BBD04A996BD80B6AFBD84
:1024B00036BDC8BD2FBCE1BD73B2FABD87CF09BE22
:1024C000834016BEB5AB22BEA2102FBECF6E3BBE60
:1024D000C2C547BE011554BE135C60BE7F9A6CBE78
:1024E000CCCF78BEC07D82BE938E88BE229A8EBE2F
:1024F00032A094BE86A09ABEE59AA0BE128FA6BE58
:10250000D47CACBEEF63B2BE2A44B8BE491DBEBE89
:1025100015EFC3BE53B9C9BECA7BCFBE4136D5BEC7
:1025200080E8DABE4F92E0BE7533E6BEBBCBEBBEB1
:10253000EA5AF1BECBE0F6BE275DFCBEE4E700BF81
:102540003D9C03BF824B06BF9BF508BF6B9A0BBF38
:10255000DA390EBFCDD310BF2A6813BFD9F615BF25
:10256000C07F18BFC6021BBFD17F1DBFCBF61FBFE8
:10257000996722BF25D224BF563627BF159429BF9D
:102580004AEB2BBFDE3B2EBFBB8530BFC9C832BF75
:10259000F30435BF233A37BF426839BF3B8F3BBF97
:1025A000F9AE3DBF67C73FBF70D841BF01E243BF2F
:1025B00003E445BF65DE47BF12D149BFF8BB4BBF3F
:1025C000029F4DBF207A4FBF3D4D51BF491853BFA9
:1025D00031DB54BFE59556BF534858BF6AF259BF27
:1025E0001A945BBF532D5DBF05BE5EBF214660BF21
:1025F00097C561BF5A3C63BF59AA64BF880F66BFC5
:10260000D86B67BF3CBF68BFA7096ABF0C4B6BBFE5
:102610005E836CBF93B26DBF9ED86EBF73F56FBF04
:10262000080971BF521372BF471473BFDD0B74BF2B
:102630000BFA74BFC6DE75BF07BA76BFC58B77BF0E
:10264000F85378BF981279BF9DC779BF02737ABFDC
:10265000BE147BBFCDAC7BBF283B7CBFC9BF7CBF5A
:10266000AC3A7DBFCCAB7DBF23137EBFB0707EBFC5
:102670006DC47EBF580E7FBF6D4E7FBFAB847FBFE2
:102680000FB17FBF97D37FBF43EC7FBF11FB7FBFED
:10269000000080BF11FB7FBF43EC7FBF97D37FBF9C
:1026A0000FB17FBFAB847FBF6D4E7FBF580E7FBF22
:1026B0006DC47EBFB0707EBF23137EBFCCAB7DBF29
:1026C000AC3A7DBFC9BF7CBF283B7CBFCDAC7BBFD4
:1026D000BE147BBF02737ABF9DC779BF981279BFC2
:1026E000F85378BFC58B77BF07BA76BFC6DE75BF14
:1026F0000BFA74BFDD0B74BF471473BF521372BF64
:10270000080971BF73F56FBF9ED86EBF93B26DBFDE
:102710005E836CBF0C4B6BBFA7096ABF3CBF68BF31
:10272000D86B67BF880F66BF59AA64BF5A3C63BFA6
:1027300097C561BF214660BF05BE5EBF532D5DBF1B
:102740001A945BBF6AF259BF534858BFE59556BF0C
:1027500031DB54BF491853BF3D4D51BF207A4FBFA5
:10276000029F4DBFF8BB4BBF12D149BF65DE47BFCB
:1027700003E445BF01E243BF70D841BF67C73FBF15
:10278000F9AE3DBF3B8F3BBF426839BF233A37BFED
:10279000F30435BFC9C832BFBB8530BFDE3B2EBF97
:1027A0004AEB2BBF159429BF563627BF25D224BF2D
:1027B000996722BFCBF61FBFD17F1DBFC6021BBFCB
:1027C000C07F18BFD9F615BF2A6813BFCDD310BF7D
:1027D000DA390EBF6B9A0BBF9BF508BF824B06BF61
:1027E0003D9C03BFE4E700BF275DFCBECBE0F6BE27
:1027F000EA5AF1BEBBCBEBBE7533E6BE4F92E0BEEC
:1028000080E8DABE4136D5BECA7BCFBE53B9C9BE59
:1028100015EFC3BE491DBEBE2A44B8BEEF63B2BEAB
:10282000D47CACBE128FA6BEE59AA0BE86A09ABE8E
:1028300032A094BE229A8EBE938E88BEC07D82BE88
:10284000CCCF78BE7F9A6CBE135C60BE011554BEBF
:10285000C2C547BECF6E3BBEA2102FBEB5AB22BED7
:10286000834016BE87CF09BE73B2FABD2FBCE1BD4F
:1028700036BDC8BD80B6AFBD04A996BD752B7BBD66
:102880002EFB48BD2BC316BDB10AC9BC920E49BC74
:0428900000000080C4
:042894006506001ABB
:0828980018F2FF7F01000000AF
:1028A0006400050000100A4022000000A512001A72
:1028B0000000000000000000000000000000000018
:1028C00000000E4001000000A512001A00000000E8
:1028D00000000000000000000000000000CB280CF9
:0828E0000100000000000000EF
:040000051A000435A4
:00000001FF
